{
  "contractName": "MyProfile",
  "abi": [
    {
      "anonymous": false,
      "inputs": [
        {
          "indexed": true,
          "internalType": "address",
          "name": "previousOwner",
          "type": "address"
        },
        {
          "indexed": true,
          "internalType": "address",
          "name": "newOwner",
          "type": "address"
        }
      ],
      "name": "OwnershipTransferred",
      "type": "event"
    },
    {
      "inputs": [],
      "name": "owner",
      "outputs": [
        {
          "internalType": "address",
          "name": "",
          "type": "address"
        }
      ],
      "stateMutability": "view",
      "type": "function",
      "constant": true
    },
    {
      "inputs": [],
      "name": "renounceOwnership",
      "outputs": [],
      "stateMutability": "nonpayable",
      "type": "function"
    },
    {
      "inputs": [
        {
          "internalType": "address",
          "name": "newOwner",
          "type": "address"
        }
      ],
      "name": "transferOwnership",
      "outputs": [],
      "stateMutability": "nonpayable",
      "type": "function"
    },
    {
      "stateMutability": "payable",
      "type": "receive",
      "payable": true
    },
    {
      "inputs": [
        {
          "internalType": "string",
          "name": "_postCid",
          "type": "string"
        },
        {
          "internalType": "string",
          "name": "_slug",
          "type": "string"
        },
        {
          "internalType": "uint64",
          "name": "_created",
          "type": "uint64"
        }
      ],
      "name": "createDraftPost",
      "outputs": [],
      "stateMutability": "nonpayable",
      "type": "function"
    },
    {
      "inputs": [
        {
          "internalType": "string",
          "name": "_postCid",
          "type": "string"
        }
      ],
      "name": "publishPost",
      "outputs": [],
      "stateMutability": "nonpayable",
      "type": "function"
    },
    {
      "inputs": [
        {
          "internalType": "string",
          "name": "_postCid",
          "type": "string"
        }
      ],
      "name": "archivePost",
      "outputs": [],
      "stateMutability": "nonpayable",
      "type": "function"
    },
    {
      "inputs": [
        {
          "internalType": "string",
          "name": "_oldPostCid",
          "type": "string"
        },
        {
          "internalType": "string",
          "name": "_newPostCid",
          "type": "string"
        },
        {
          "internalType": "string",
          "name": "_slug",
          "type": "string"
        }
      ],
      "name": "updatePost",
      "outputs": [],
      "stateMutability": "nonpayable",
      "type": "function"
    },
    {
      "inputs": [
        {
          "internalType": "string",
          "name": "_postCid",
          "type": "string"
        }
      ],
      "name": "getPost",
      "outputs": [
        {
          "components": [
            {
              "internalType": "enum MyProfile.PostStatus",
              "name": "status",
              "type": "uint8"
            },
            {
              "internalType": "string",
              "name": "cid",
              "type": "string"
            },
            {
              "internalType": "string",
              "name": "slug",
              "type": "string"
            },
            {
              "internalType": "uint64",
              "name": "created",
              "type": "uint64"
            },
            {
              "internalType": "uint256",
              "name": "index",
              "type": "uint256"
            }
          ],
          "internalType": "struct MyProfile.Post",
          "name": "",
          "type": "tuple"
        }
      ],
      "stateMutability": "view",
      "type": "function",
      "constant": true
    },
    {
      "inputs": [
        {
          "internalType": "string",
          "name": "_slug",
          "type": "string"
        }
      ],
      "name": "getPostBySlug",
      "outputs": [
        {
          "components": [
            {
              "internalType": "enum MyProfile.PostStatus",
              "name": "status",
              "type": "uint8"
            },
            {
              "internalType": "string",
              "name": "cid",
              "type": "string"
            },
            {
              "internalType": "string",
              "name": "slug",
              "type": "string"
            },
            {
              "internalType": "uint64",
              "name": "created",
              "type": "uint64"
            },
            {
              "internalType": "uint256",
              "name": "index",
              "type": "uint256"
            }
          ],
          "internalType": "struct MyProfile.Post",
          "name": "",
          "type": "tuple"
        }
      ],
      "stateMutability": "view",
      "type": "function",
      "constant": true
    },
    {
      "inputs": [
        {
          "internalType": "uint256",
          "name": "_start",
          "type": "uint256"
        },
        {
          "internalType": "uint256",
          "name": "_end",
          "type": "uint256"
        }
      ],
      "name": "getDraftPosts",
      "outputs": [
        {
          "components": [
            {
              "internalType": "enum MyProfile.PostStatus",
              "name": "status",
              "type": "uint8"
            },
            {
              "internalType": "string",
              "name": "cid",
              "type": "string"
            },
            {
              "internalType": "string",
              "name": "slug",
              "type": "string"
            },
            {
              "internalType": "uint64",
              "name": "created",
              "type": "uint64"
            },
            {
              "internalType": "uint256",
              "name": "index",
              "type": "uint256"
            }
          ],
          "internalType": "struct MyProfile.Post[]",
          "name": "",
          "type": "tuple[]"
        },
        {
          "internalType": "uint256",
          "name": "",
          "type": "uint256"
        }
      ],
      "stateMutability": "view",
      "type": "function",
      "constant": true
    },
    {
      "inputs": [
        {
          "internalType": "uint256",
          "name": "_start",
          "type": "uint256"
        },
        {
          "internalType": "uint256",
          "name": "_end",
          "type": "uint256"
        }
      ],
      "name": "getPublishedPosts",
      "outputs": [
        {
          "components": [
            {
              "internalType": "enum MyProfile.PostStatus",
              "name": "status",
              "type": "uint8"
            },
            {
              "internalType": "string",
              "name": "cid",
              "type": "string"
            },
            {
              "internalType": "string",
              "name": "slug",
              "type": "string"
            },
            {
              "internalType": "uint64",
              "name": "created",
              "type": "uint64"
            },
            {
              "internalType": "uint256",
              "name": "index",
              "type": "uint256"
            }
          ],
          "internalType": "struct MyProfile.Post[]",
          "name": "",
          "type": "tuple[]"
        },
        {
          "internalType": "uint256",
          "name": "",
          "type": "uint256"
        }
      ],
      "stateMutability": "view",
      "type": "function",
      "constant": true
    },
    {
      "inputs": [
        {
          "internalType": "uint256",
          "name": "_start",
          "type": "uint256"
        },
        {
          "internalType": "uint256",
          "name": "_end",
          "type": "uint256"
        }
      ],
      "name": "getArchivedPosts",
      "outputs": [
        {
          "components": [
            {
              "internalType": "enum MyProfile.PostStatus",
              "name": "status",
              "type": "uint8"
            },
            {
              "internalType": "string",
              "name": "cid",
              "type": "string"
            },
            {
              "internalType": "string",
              "name": "slug",
              "type": "string"
            },
            {
              "internalType": "uint64",
              "name": "created",
              "type": "uint64"
            },
            {
              "internalType": "uint256",
              "name": "index",
              "type": "uint256"
            }
          ],
          "internalType": "struct MyProfile.Post[]",
          "name": "",
          "type": "tuple[]"
        },
        {
          "internalType": "uint256",
          "name": "",
          "type": "uint256"
        }
      ],
      "stateMutability": "view",
      "type": "function",
      "constant": true
    },
    {
      "inputs": [],
      "name": "withdraw",
      "outputs": [],
      "stateMutability": "nonpayable",
      "type": "function"
    },
    {
      "inputs": [
        {
          "internalType": "string[]",
          "name": "self",
          "type": "string[]"
        },
        {
          "internalType": "uint256",
          "name": "_start",
          "type": "uint256"
        },
        {
          "internalType": "uint256",
          "name": "_end",
          "type": "uint256"
        }
      ],
      "name": "_paginate",
      "outputs": [
        {
          "components": [
            {
              "internalType": "enum MyProfile.PostStatus",
              "name": "status",
              "type": "uint8"
            },
            {
              "internalType": "string",
              "name": "cid",
              "type": "string"
            },
            {
              "internalType": "string",
              "name": "slug",
              "type": "string"
            },
            {
              "internalType": "uint64",
              "name": "created",
              "type": "uint64"
            },
            {
              "internalType": "uint256",
              "name": "index",
              "type": "uint256"
            }
          ],
          "internalType": "struct MyProfile.Post[]",
          "name": "",
          "type": "tuple[]"
        }
      ],
      "stateMutability": "view",
      "type": "function",
      "constant": true
    }
  ],
  "bytecode": "0x60806040523480156200001157600080fd5b5062000032620000266200003860201b60201c565b6200004060201b60201c565b62000104565b600033905090565b60008060009054906101000a900473ffffffffffffffffffffffffffffffffffffffff169050816000806101000a81548173ffffffffffffffffffffffffffffffffffffffff021916908373ffffffffffffffffffffffffffffffffffffffff1602179055508173ffffffffffffffffffffffffffffffffffffffff168173ffffffffffffffffffffffffffffffffffffffff167f8be0079c531659141344cd1fd0a4f28419497f9722a3daafe3b4186f6b6457e060405160405180910390a35050565b61322280620001146000396000f3fe6080604052600436106100e15760003560e01c8063920130341161007f578063d9a85fc111610059578063d9a85fc1146102b8578063df4a259b146102f5578063ea80667d14610332578063f2fde38b1461035b576100e8565b80639201303414610213578063b8c38e4614610251578063c57194631461028f576100e8565b80633ccfd60b116100bb5780633ccfd60b1461017c578063715018a61461019357806387484dcf146101aa5780638da5cb5b146101e8576100e8565b8063022b3826146100ed5780631a85131c1461012a578063306309be14610153576100e8565b366100e857005b600080fd5b3480156100f957600080fd5b50610114600480360381019061010f9190612061565b610384565b6040516101219190612337565b60405180910390f35b34801561013657600080fd5b50610151600480360381019061014c9190612359565b610749565b005b34801561015f57600080fd5b5061017a6004803603810190610175919061242c565b610b84565b005b34801561018857600080fd5b50610191610e92565b005b34801561019f57600080fd5b506101a8610ee3565b005b3480156101b657600080fd5b506101d160048036038101906101cc91906124b7565b610ef7565b6040516101df929190612506565b60405180910390f35b3480156101f457600080fd5b506101fd61103a565b60405161020a9190612577565b60405180910390f35b34801561021f57600080fd5b5061023a600480360381019061023591906124b7565b611063565b604051610248929190612506565b60405180910390f35b34801561025d57600080fd5b50610278600480360381019061027391906124b7565b6111a6565b604051610286929190612506565b60405180910390f35b34801561029b57600080fd5b506102b660048036038101906102b19190612592565b6112e9565b005b3480156102c457600080fd5b506102df60048036038101906102da9190612592565b6115df565b6040516102ec9190612658565b60405180910390f35b34801561030157600080fd5b5061031c60048036038101906103179190612592565b6117cf565b6040516103299190612658565b60405180910390f35b34801561033e57600080fd5b5061035960048036038101906103549190612592565b6119a2565b005b34801561036757600080fd5b50610382600480360381019061037d91906126a6565b611b76565b005b60606000831015801561039657508183105b6103d5576040517f08c379a00000000000000000000000000000000000000000000000000000000081526004016103cc90612730565b60405180910390fd5b6000845190506000818411156103ed578190506103f1565b8390505b606085821161045c57600067ffffffffffffffff81111561041557610414611e15565b5b60405190808252806020026020018201604052801561044e57816020015b61043b611d43565b8152602001906001900390816104335790505b509050809350505050610742565b6000868361046a919061277f565b905060008760018661047c919061277f565b610486919061277f565b90508167ffffffffffffffff8111156104a2576104a1611e15565b5b6040519080825280602002602001820160405280156104db57816020015b6104c8611d43565b8152602001906001900390816104c05790505b5092506000808290505b838210156107375760008b8281518110610502576105016127b3565b5b6020026020010151511461071b5760018b8281518110610525576105246127b3565b5b602002602001015160405161053a919061281e565b90815260200160405180910390206040518060a00160405290816000820160009054906101000a900460ff166002811115610578576105776120fc565b5b600281111561058a576105896120fc565b5b815260200160018201805461059e90612864565b80601f01602080910402602001604051908101604052809291908181526020018280546105ca90612864565b80156106175780601f106105ec57610100808354040283529160200191610617565b820191906000526020600020905b8154815290600101906020018083116105fa57829003601f168201915b5050505050815260200160028201805461063090612864565b80601f016020809104026020016040519081016040528092919081815260200182805461065c90612864565b80156106a95780601f1061067e576101008083540402835291602001916106a9565b820191906000526020600020905b81548152906001019060200180831161068c57829003601f168201915b505050505081526020016003820160009054906101000a900467ffffffffffffffff1667ffffffffffffffff1667ffffffffffffffff168152602001600482015481525050858381518110610701576107006127b3565b5b6020026020010181905250818061071790612895565b9250505b600081031561073757808061072f906128dd565b9150506104e5565b849750505050505050505b9392505050565b610751611bf9565b600280811115610764576107636120fc565b5b600184604051610774919061281e565b908152602001604051809103902060000160009054906101000a900460ff1660028111156107a5576107a46120fc565b5b036107e5576040517f08c379a00000000000000000000000000000000000000000000000000000000081526004016107dc90612952565b60405180910390fd5b6001836040516107f5919061281e565b9081526020016040518091039020600183604051610813919061281e565b90815260200160405180910390206000820160009054906101000a900460ff168160000160006101000a81548160ff02191690836002811115610859576108586120fc565b5b0217905550600182018160010190816108729190612b34565b50600282018160020190816108879190612b34565b506003820160009054906101000a900467ffffffffffffffff168160030160006101000a81548167ffffffffffffffff021916908367ffffffffffffffff16021790555060048201548160040155905050816001836040516108e9919061281e565b908152602001604051809103902060010190816109069190612c1c565b506002600184604051610919919061281e565b90815260200160405180910390206002016040516109379190612d71565b908152602001604051809103902060006109519190611d8e565b80600183604051610962919061281e565b9081526020016040518091039020600201908161097f9190612c1c565b5081600282604051610991919061281e565b908152602001604051809103902090816109ab9190612c1c565b50600060028111156109c0576109bf6120fc565b5b6001836040516109d0919061281e565b908152602001604051809103902060000160009054906101000a900460ff166002811115610a0157610a006120fc565b5b03610a5b57816003600001600184604051610a1c919061281e565b90815260200160405180910390206004015481548110610a3f57610a3e6127b3565b5b906000526020600020019081610a559190612c1c565b50610b07565b60016002811115610a6f57610a6e6120fc565b5b600183604051610a7f919061281e565b908152602001604051809103902060000160009054906101000a900460ff166002811115610ab057610aaf6120fc565b5b03610b0657816005600001600184604051610acb919061281e565b90815260200160405180910390206004015481548110610aee57610aed6127b3565b5b906000526020600020019081610b049190612c1c565b505b5b600183604051610b17919061281e565b9081526020016040518091039020600080820160006101000a81549060ff0219169055600182016000610b4a9190611d8e565b600282016000610b5a9190611d8e565b6003820160006101000a81549067ffffffffffffffff021916905560048201600090555050505050565b610b8c611bf9565b60008167ffffffffffffffff1611610bd9576040517f08c379a0000000000000000000000000000000000000000000000000000000008152600401610bd090612dd4565b60405180910390fd5b6000825111610c1d576040517f08c379a0000000000000000000000000000000000000000000000000000000008152600401610c1490612e40565b60405180910390fd5b6000600184604051610c2f919061281e565b908152602001604051809103902060030160009054906101000a900467ffffffffffffffff1667ffffffffffffffff1614610c9f576040517f08c379a0000000000000000000000000000000000000000000000000000000008152600401610c9690612ed2565b60405180910390fd5b6000600283604051610cb1919061281e565b90815260200160405180910390208054610cca90612864565b905014610d0c576040517f08c379a0000000000000000000000000000000000000000000000000000000008152600401610d0390612f3e565b60405180910390fd5b6040518060a0016040528060006002811115610d2b57610d2a6120fc565b5b81526020018481526020018381526020018267ffffffffffffffff168152602001600360000180549050815250600184604051610d68919061281e565b908152602001604051809103902060008201518160000160006101000a81548160ff02191690836002811115610da157610da06120fc565b5b02179055506020820151816001019081610dbb9190612c1c565b506040820151816002019081610dd19190612c1c565b5060608201518160030160006101000a81548167ffffffffffffffff021916908367ffffffffffffffff1602179055506080820151816004015590505082600283604051610e1f919061281e565b90815260200160405180910390209081610e399190612c1c565b50600360000183908060018154018082558091505060019003906000526020600020016000909190919091509081610e719190612c1c565b5060036001016000815480929190610e8890612895565b9190505550505050565b610e9a611bf9565b3373ffffffffffffffffffffffffffffffffffffffff166108fc479081150290604051600060405180830381858888f19350505050158015610ee0573d6000803e3d6000fd5b50565b610eeb611bf9565b610ef56000611c77565b565b6060600060328484610f09919061277f565b1115610f4a576040517f08c379a0000000000000000000000000000000000000000000000000000000008152600401610f4190612fd0565b60405180910390fd5b6110296007600001805480602002602001604051908101604052809291908181526020016000905b8282101561101e578382906000526020600020018054610f9190612864565b80601f0160208091040260200160405190810160405280929190818152602001828054610fbd90612864565b801561100a5780601f10610fdf5761010080835404028352916020019161100a565b820191906000526020600020905b815481529060010190602001808311610fed57829003601f168201915b505050505081526020019060010190610f72565b505050508585610384565b600760010154915091509250929050565b60008060009054906101000a900473ffffffffffffffffffffffffffffffffffffffff16905090565b6060600060328484611075919061277f565b11156110b6576040517f08c379a00000000000000000000000000000000000000000000000000000000081526004016110ad90612fd0565b60405180910390fd5b6111956003600001805480602002602001604051908101604052809291908181526020016000905b8282101561118a5783829060005260206000200180546110fd90612864565b80601f016020809104026020016040519081016040528092919081815260200182805461112990612864565b80156111765780601f1061114b57610100808354040283529160200191611176565b820191906000526020600020905b81548152906001019060200180831161115957829003601f168201915b5050505050815260200190600101906110de565b505050508585610384565b600360010154915091509250929050565b60606000603284846111b8919061277f565b11156111f9576040517f08c379a00000000000000000000000000000000000000000000000000000000081526004016111f090612fd0565b60405180910390fd5b6112d86005600001805480602002602001604051908101604052809291908181526020016000905b828210156112cd57838290600052602060002001805461124090612864565b80601f016020809104026020016040519081016040528092919081815260200182805461126c90612864565b80156112b95780601f1061128e576101008083540402835291602001916112b9565b820191906000526020600020905b81548152906001019060200180831161129c57829003601f168201915b505050505081526020019060010190611221565b505050508585610384565b600560010154915091509250929050565b6112f1611bf9565b60016002811115611305576113046120fc565b5b600182604051611315919061281e565b908152602001604051809103902060000160009054906101000a900460ff166002811115611346576113456120fc565b5b03611386576040517f08c379a000000000000000000000000000000000000000000000000000000000815260040161137d9061303c565b60405180910390fd5b6000600281111561139a576113996120fc565b5b6001826040516113aa919061281e565b908152602001604051809103902060000160009054906101000a900460ff1660028111156113db576113da6120fc565b5b0361144e5760036000016001826040516113f5919061281e565b90815260200160405180910390206004015481548110611418576114176127b3565b5b90600052602060002001600061142e9190611d8e565b60036001016000815480929190611444906128dd565b9190505550611512565b600280811115611461576114606120fc565b5b600182604051611471919061281e565b908152602001604051809103902060000160009054906101000a900460ff1660028111156114a2576114a16120fc565b5b036115115760076000016001826040516114bc919061281e565b908152602001604051809103902060040154815481106114df576114de6127b3565b5b9060005260206000200160006114f59190611d8e565b6007600101600081548092919061150b906128dd565b91905055505b5b60018082604051611523919061281e565b908152602001604051809103902060000160006101000a81548160ff02191690836002811115611556576115556120fc565b5b0217905550600560000180549050600182604051611574919061281e565b9081526020016040518091039020600401819055506005600001819080600181540180825580915050600190039060005260206000200160009091909190915090816115c09190612c1c565b50600560010160008154809291906115d790612895565b919050555050565b6115e7611d43565b60016002836040516115f9919061281e565b90815260200160405180910390206040516116149190612d71565b90815260200160405180910390206040518060a00160405290816000820160009054906101000a900460ff166002811115611652576116516120fc565b5b6002811115611664576116636120fc565b5b815260200160018201805461167890612864565b80601f01602080910402602001604051908101604052809291908181526020018280546116a490612864565b80156116f15780601f106116c6576101008083540402835291602001916116f1565b820191906000526020600020905b8154815290600101906020018083116116d457829003601f168201915b5050505050815260200160028201805461170a90612864565b80601f016020809104026020016040519081016040528092919081815260200182805461173690612864565b80156117835780601f1061175857610100808354040283529160200191611783565b820191906000526020600020905b81548152906001019060200180831161176657829003601f168201915b505050505081526020016003820160009054906101000a900467ffffffffffffffff1667ffffffffffffffff1667ffffffffffffffff1681526020016004820154815250509050919050565b6117d7611d43565b6001826040516117e7919061281e565b90815260200160405180910390206040518060a00160405290816000820160009054906101000a900460ff166002811115611825576118246120fc565b5b6002811115611837576118366120fc565b5b815260200160018201805461184b90612864565b80601f016020809104026020016040519081016040528092919081815260200182805461187790612864565b80156118c45780601f10611899576101008083540402835291602001916118c4565b820191906000526020600020905b8154815290600101906020018083116118a757829003601f168201915b505050505081526020016002820180546118dd90612864565b80601f016020809104026020016040519081016040528092919081815260200182805461190990612864565b80156119565780601f1061192b57610100808354040283529160200191611956565b820191906000526020600020905b81548152906001019060200180831161193957829003601f168201915b505050505081526020016003820160009054906101000a900467ffffffffffffffff1667ffffffffffffffff1667ffffffffffffffff1681526020016004820154815250509050919050565b6119aa611bf9565b600160028111156119be576119bd6120fc565b5b6001826040516119ce919061281e565b908152602001604051809103902060000160009054906101000a900460ff1660028111156119ff576119fe6120fc565b5b14611a3f576040517f08c379a0000000000000000000000000000000000000000000000000000000008152600401611a36906130ce565b60405180910390fd5b6005600001600182604051611a54919061281e565b90815260200160405180910390206004015481548110611a7757611a766127b3565b5b906000526020600020016000611a8d9190611d8e565b60056001016000815480929190611aa3906128dd565b91905055506002600182604051611aba919061281e565b908152602001604051809103902060000160006101000a81548160ff02191690836002811115611aed57611aec6120fc565b5b0217905550600760000180549050600182604051611b0b919061281e565b908152602001604051809103902060040181905550600760000181908060018154018082558091505060019003906000526020600020016000909190919091509081611b579190612c1c565b5060076001016000815480929190611b6e90612895565b919050555050565b611b7e611bf9565b600073ffffffffffffffffffffffffffffffffffffffff168173ffffffffffffffffffffffffffffffffffffffff1603611bed576040517f08c379a0000000000000000000000000000000000000000000000000000000008152600401611be490613160565b60405180910390fd5b611bf681611c77565b50565b611c01611d3b565b73ffffffffffffffffffffffffffffffffffffffff16611c1f61103a565b73ffffffffffffffffffffffffffffffffffffffff1614611c75576040517f08c379a0000000000000000000000000000000000000000000000000000000008152600401611c6c906131cc565b60405180910390fd5b565b60008060009054906101000a900473ffffffffffffffffffffffffffffffffffffffff169050816000806101000a81548173ffffffffffffffffffffffffffffffffffffffff021916908373ffffffffffffffffffffffffffffffffffffffff1602179055508173ffffffffffffffffffffffffffffffffffffffff168173ffffffffffffffffffffffffffffffffffffffff167f8be0079c531659141344cd1fd0a4f28419497f9722a3daafe3b4186f6b6457e060405160405180910390a35050565b600033905090565b6040518060a0016040528060006002811115611d6257611d616120fc565b5b81526020016060815260200160608152602001600067ffffffffffffffff168152602001600081525090565b508054611d9a90612864565b6000825580601f10611dac5750611dcb565b601f016020900490600052602060002090810190611dca9190611dce565b5b50565b5b80821115611de7576000816000905550600101611dcf565b5090565b6000604051905090565b600080fd5b600080fd5b600080fd5b6000601f19601f8301169050919050565b7f4e487b7100000000000000000000000000000000000000000000000000000000600052604160045260246000fd5b611e4d82611e04565b810181811067ffffffffffffffff82111715611e6c57611e6b611e15565b5b80604052505050565b6000611e7f611deb565b9050611e8b8282611e44565b919050565b600067ffffffffffffffff821115611eab57611eaa611e15565b5b602082029050602081019050919050565b600080fd5b600080fd5b600067ffffffffffffffff821115611ee157611ee0611e15565b5b611eea82611e04565b9050602081019050919050565b82818337600083830152505050565b6000611f19611f1484611ec6565b611e75565b905082815260208101848484011115611f3557611f34611ec1565b5b611f40848285611ef7565b509392505050565b600082601f830112611f5d57611f5c611dff565b5b8135611f6d848260208601611f06565b91505092915050565b6000611f89611f8484611e90565b611e75565b90508083825260208201905060208402830185811115611fac57611fab611ebc565b5b835b81811015611ff357803567ffffffffffffffff811115611fd157611fd0611dff565b5b808601611fde8982611f48565b85526020850194505050602081019050611fae565b5050509392505050565b600082601f83011261201257612011611dff565b5b8135612022848260208601611f76565b91505092915050565b6000819050919050565b61203e8161202b565b811461204957600080fd5b50565b60008135905061205b81612035565b92915050565b60008060006060848603121561207a57612079611df5565b5b600084013567ffffffffffffffff81111561209857612097611dfa565b5b6120a486828701611ffd565b93505060206120b58682870161204c565b92505060406120c68682870161204c565b9150509250925092565b600081519050919050565b600082825260208201905092915050565b6000819050602082019050919050565b7f4e487b7100000000000000000000000000000000000000000000000000000000600052602160045260246000fd5b6003811061213c5761213b6120fc565b5b50565b600081905061214d8261212b565b919050565b600061215d8261213f565b9050919050565b61216d81612152565b82525050565b600081519050919050565b600082825260208201905092915050565b60005b838110156121ad578082015181840152602081019050612192565b60008484015250505050565b60006121c482612173565b6121ce818561217e565b93506121de81856020860161218f565b6121e781611e04565b840191505092915050565b600067ffffffffffffffff82169050919050565b61220f816121f2565b82525050565b61221e8161202b565b82525050565b600060a08301600083015161223c6000860182612164565b506020830151848203602086015261225482826121b9565b9150506040830151848203604086015261226e82826121b9565b91505060608301516122836060860182612206565b5060808301516122966080860182612215565b508091505092915050565b60006122ad8383612224565b905092915050565b6000602082019050919050565b60006122cd826120d0565b6122d781856120db565b9350836020820285016122e9856120ec565b8060005b85811015612325578484038952815161230685826122a1565b9450612311836122b5565b925060208a019950506001810190506122ed565b50829750879550505050505092915050565b6000602082019050818103600083015261235181846122c2565b905092915050565b60008060006060848603121561237257612371611df5565b5b600084013567ffffffffffffffff8111156123905761238f611dfa565b5b61239c86828701611f48565b935050602084013567ffffffffffffffff8111156123bd576123bc611dfa565b5b6123c986828701611f48565b925050604084013567ffffffffffffffff8111156123ea576123e9611dfa565b5b6123f686828701611f48565b9150509250925092565b612409816121f2565b811461241457600080fd5b50565b60008135905061242681612400565b92915050565b60008060006060848603121561244557612444611df5565b5b600084013567ffffffffffffffff81111561246357612462611dfa565b5b61246f86828701611f48565b935050602084013567ffffffffffffffff8111156124905761248f611dfa565b5b61249c86828701611f48565b92505060406124ad86828701612417565b9150509250925092565b600080604083850312156124ce576124cd611df5565b5b60006124dc8582860161204c565b92505060206124ed8582860161204c565b9150509250929050565b6125008161202b565b82525050565b6000604082019050818103600083015261252081856122c2565b905061252f60208301846124f7565b9392505050565b600073ffffffffffffffffffffffffffffffffffffffff82169050919050565b600061256182612536565b9050919050565b61257181612556565b82525050565b600060208201905061258c6000830184612568565b92915050565b6000602082840312156125a8576125a7611df5565b5b600082013567ffffffffffffffff8111156125c6576125c5611dfa565b5b6125d284828501611f48565b91505092915050565b600060a0830160008301516125f36000860182612164565b506020830151848203602086015261260b82826121b9565b9150506040830151848203604086015261262582826121b9565b915050606083015161263a6060860182612206565b50608083015161264d6080860182612215565b508091505092915050565b6000602082019050818103600083015261267281846125db565b905092915050565b61268381612556565b811461268e57600080fd5b50565b6000813590506126a08161267a565b92915050565b6000602082840312156126bc576126bb611df5565b5b60006126ca84828501612691565b91505092915050565b600082825260208201905092915050565b7f5f73746172742073686f756c64206265203e3d203020616e64203c205f656e64600082015250565b600061271a6020836126d3565b9150612725826126e4565b602082019050919050565b600060208201905081810360008301526127498161270d565b9050919050565b7f4e487b7100000000000000000000000000000000000000000000000000000000600052601160045260246000fd5b600061278a8261202b565b91506127958361202b565b92508282039050818111156127ad576127ac612750565b5b92915050565b7f4e487b7100000000000000000000000000000000000000000000000000000000600052603260045260246000fd5b600081905092915050565b60006127f882612173565b61280281856127e2565b935061281281856020860161218f565b80840191505092915050565b600061282a82846127ed565b915081905092915050565b7f4e487b7100000000000000000000000000000000000000000000000000000000600052602260045260246000fd5b6000600282049050600182168061287c57607f821691505b60208210810361288f5761288e612835565b5b50919050565b60006128a08261202b565b91507fffffffffffffffffffffffffffffffffffffffffffffffffffffffffffffffff82036128d2576128d1612750565b5b600182019050919050565b60006128e88261202b565b9150600082036128fb576128fa612750565b5b600182039050919050565b7f74686520706f73742073686f756c64206e6f7420626520617263686976656400600082015250565b600061293c601f836126d3565b915061294782612906565b602082019050919050565b6000602082019050818103600083015261296b8161292f565b9050919050565b60008154905061298181612864565b9050919050565b60008190508160005260206000209050919050565b60006020601f8301049050919050565b600082821b905092915050565b6000600883026129ea7fffffffffffffffffffffffffffffffffffffffffffffffffffffffffffffffff826129ad565b6129f486836129ad565b95508019841693508086168417925050509392505050565b6000819050919050565b6000612a31612a2c612a278461202b565b612a0c565b61202b565b9050919050565b6000819050919050565b612a4b83612a16565b612a5f612a5782612a38565b8484546129ba565b825550505050565b600090565b612a74612a67565b612a7f818484612a42565b505050565b5b81811015612aa357612a98600082612a6c565b600181019050612a85565b5050565b601f821115612ae857612ab981612988565b612ac28461299d565b81016020851015612ad1578190505b612ae5612add8561299d565b830182612a84565b50505b505050565b600082821c905092915050565b6000612b0b60001984600802612aed565b1980831691505092915050565b6000612b248383612afa565b9150826002028217905092915050565b818103612b42575050612c1a565b612b4b82612972565b67ffffffffffffffff811115612b6457612b63611e15565b5b612b6e8254612864565b612b79828285612aa7565b6000601f831160018114612ba85760008415612b96578287015490505b612ba08582612b18565b865550612c13565b601f198416612bb687612988565b9650612bc186612988565b60005b82811015612be957848901548255600182019150600185019450602081019050612bc4565b86831015612c065784890154612c02601f891682612afa565b8355505b6001600288020188555050505b5050505050505b565b612c2582612173565b67ffffffffffffffff811115612c3e57612c3d611e15565b5b612c488254612864565b612c53828285612aa7565b600060209050601f831160018114612c865760008415612c74578287015190505b612c7e8582612b18565b865550612ce6565b601f198416612c9486612988565b60005b82811015612cbc57848901518255600182019150602085019450602081019050612c97565b86831015612cd95784890151612cd5601f891682612afa565b8355505b6001600288020188555050505b505050505050565b60008154612cfb81612864565b612d0581866127e2565b94506001821660008114612d205760018114612d3557612d68565b60ff1983168652811515820286019350612d68565b612d3e85612988565b60005b83811015612d6057815481890152600182019150602081019050612d41565b838801955050505b50505092915050565b6000612d7d8284612cee565b915081905092915050565b7f637265617465642074696d652073686f756c64206265203e2030000000000000600082015250565b6000612dbe601a836126d3565b9150612dc982612d88565b602082019050919050565b60006020820190508181036000830152612ded81612db1565b9050919050565b7f736c75672063616e6e6f7420626520656d707479000000000000000000000000600082015250565b6000612e2a6014836126d3565b9150612e3582612df4565b602082019050919050565b60006020820190508181036000830152612e5981612e1d565b9050919050565b7f74686520706f73742077697468207061737365642043494420697320616c726560008201527f6164792070726573656e74000000000000000000000000000000000000000000602082015250565b6000612ebc602b836126d3565b9150612ec782612e60565b604082019050919050565b60006020820190508181036000830152612eeb81612eaf565b9050919050565b7f736c75672073686f756c6420626520756e697175650000000000000000000000600082015250565b6000612f286015836126d3565b9150612f3382612ef2565b602082019050919050565b60006020820190508181036000830152612f5781612f1b565b9050919050565b7f646966666572656e74206265747765656e205f656e6420616e64205f7374617260008201527f742063616e6e6f74206265203e20353000000000000000000000000000000000602082015250565b6000612fba6030836126d3565b9150612fc582612f5e565b604082019050919050565b60006020820190508181036000830152612fe981612fad565b9050919050565b7f74686520706f737420697320616c7265616479207075626c6973686564000000600082015250565b6000613026601d836126d3565b915061303182612ff0565b602082019050919050565b6000602082019050818103600083015261305581613019565b9050919050565b7f74686520706f73742073686f756c64206265207075626c697368656420746f2060008201527f6172636869766500000000000000000000000000000000000000000000000000602082015250565b60006130b86027836126d3565b91506130c38261305c565b604082019050919050565b600060208201905081810360008301526130e7816130ab565b9050919050565b7f4f776e61626c653a206e6577206f776e657220697320746865207a65726f206160008201527f6464726573730000000000000000000000000000000000000000000000000000602082015250565b600061314a6026836126d3565b9150613155826130ee565b604082019050919050565b600060208201905081810360008301526131798161313d565b9050919050565b7f4f776e61626c653a2063616c6c6572206973206e6f7420746865206f776e6572600082015250565b60006131b66020836126d3565b91506131c182613180565b602082019050919050565b600060208201905081810360008301526131e5816131a9565b905091905056fea2646970667358221220677f85fb177284623a18ca9ac11c4ae5a8336c2232131ab5b7c3cbba186a2f7764736f6c63430008130033",
  "immutableReferences": {},
  "source": "// SPDX-License-Identifier: MIT\n\npragma solidity 0.8.19;\n\nimport \"@openzeppelin/contracts/access/Ownable.sol\";\n\ncontract MyProfile is Ownable {\n    enum PostStatus {\n        DRAFT,\n        PUBLISHED,\n        ARCHIVED\n    }\n\n    struct Post {\n        PostStatus status;\n        string cid;\n        string slug;\n        uint64 created;\n        // the index where post is placed in published posts list\n        uint index;\n    }\n\n    struct PostsList {\n        string[] list;\n        uint length;\n    }\n\n    // postCID => Post\n    mapping(string => Post) private cidToPost;\n    // slug => postCID\n    mapping(string => string) private slugToPostCid;\n\n    PostsList private draftPosts;\n    PostsList private publishedPosts;\n    PostsList private archivedPosts;\n\n    receive() external payable {}\n\n    function createDraftPost(\n        string memory _postCid,\n        string memory _slug,\n        uint64 _created\n    ) public onlyOwner {\n        require(_created > 0, \"created time should be > 0\");\n        require(bytes(_slug).length > 0, \"slug cannot be empty\");\n        require(cidToPost[_postCid].created == 0, \"the post with passed CID is already present\");\n        require(bytes(slugToPostCid[_slug]).length == 0, \"slug should be unique\");\n\n        cidToPost[_postCid] = Post({\n            status: PostStatus.DRAFT,\n            cid: _postCid,\n            slug: _slug,\n            created: _created,\n            index: draftPosts.list.length\n        });\n\n        slugToPostCid[_slug] = _postCid;\n\n        draftPosts.list.push(_postCid);\n        draftPosts.length++;\n    }\n\n    function publishPost(string memory _postCid) public onlyOwner {\n        require(\n            cidToPost[_postCid].status != PostStatus.PUBLISHED,\n            \"the post is already published\"\n        );\n\n        if (cidToPost[_postCid].status == PostStatus.DRAFT) {\n            delete draftPosts.list[cidToPost[_postCid].index];\n            draftPosts.length--;\n            //\n        } else if (cidToPost[_postCid].status == PostStatus.ARCHIVED) {\n            delete archivedPosts.list[cidToPost[_postCid].index];\n            archivedPosts.length--;\n        }\n\n        cidToPost[_postCid].status = PostStatus.PUBLISHED;\n        cidToPost[_postCid].index = publishedPosts.list.length;\n\n        publishedPosts.list.push(_postCid);\n        publishedPosts.length++;\n    }\n\n    function archivePost(string memory _postCid) public onlyOwner {\n        require(\n            cidToPost[_postCid].status == PostStatus.PUBLISHED,\n            \"the post should be published to archive\"\n        );\n\n        delete publishedPosts.list[cidToPost[_postCid].index];\n        publishedPosts.length--;\n\n        cidToPost[_postCid].status = PostStatus.ARCHIVED;\n        cidToPost[_postCid].index = archivedPosts.list.length;\n\n        archivedPosts.list.push(_postCid);\n        archivedPosts.length++;\n    }\n\n    /*\n    Replace post CID with new CID\n\n    Restrictions:\n    - A post should be in DRAFT or PUBLISHED status\n    - A post cannot be ARCHIVED\n    */\n    function updatePost(\n        string memory _oldPostCid,\n        string memory _newPostCid,\n        string memory _slug\n    ) public onlyOwner {\n        require(\n            cidToPost[_oldPostCid].status != PostStatus.ARCHIVED,\n            \"the post should not be archived\"\n        );\n\n        // copy old post data to new (updated) post\n        cidToPost[_newPostCid] = cidToPost[_oldPostCid];\n        cidToPost[_newPostCid].cid = _newPostCid;\n\n        delete slugToPostCid[cidToPost[_oldPostCid].slug];\n        cidToPost[_newPostCid].slug = _slug;\n        slugToPostCid[_slug] = _newPostCid;\n\n        if (cidToPost[_newPostCid].status == PostStatus.DRAFT) {\n            // replace old post CID with new CID\n            draftPosts.list[cidToPost[_newPostCid].index] = _newPostCid;\n            //\n        } else if (cidToPost[_newPostCid].status == PostStatus.PUBLISHED) {\n            publishedPosts.list[cidToPost[_newPostCid].index] = _newPostCid;\n        }\n\n        // remove old post data\n        delete cidToPost[_oldPostCid];\n    }\n\n    function getPost(string memory _postCid) public view returns (Post memory) {\n        return cidToPost[_postCid];\n    }\n\n    function getPostBySlug(string memory _slug) public view returns (Post memory) {\n        return cidToPost[slugToPostCid[_slug]];\n    }\n\n    function getDraftPosts(uint _start, uint _end) public view returns (Post[] memory, uint) {\n        require(_end - _start <= 50, \"different between _end and _start cannot be > 50\");\n\n        return (_paginate(draftPosts.list, _start, _end), draftPosts.length);\n    }\n\n    function getPublishedPosts(uint _start, uint _end) public view returns (Post[] memory, uint) {\n        require(_end - _start <= 50, \"different between _end and _start cannot be > 50\");\n\n        return (_paginate(publishedPosts.list, _start, _end), publishedPosts.length);\n    }\n\n    function getArchivedPosts(uint _start, uint _end) public view returns (Post[] memory, uint) {\n        require(_end - _start <= 50, \"different between _end and _start cannot be > 50\");\n\n        return (_paginate(archivedPosts.list, _start, _end), archivedPosts.length);\n    }\n\n    function withdraw() public onlyOwner {\n        payable(msg.sender).transfer(address(this).balance);\n    }\n\n    function _paginate(\n        string[] memory self,\n        uint _start,\n        uint _end\n    ) public view returns (Post[] memory) {\n        require(_start >= 0 && _start < _end, \"_start should be >= 0 and < _end\");\n\n        uint _totalNumber = self.length;\n        uint _allowableEnd;\n\n        if (_end > _totalNumber) {\n            _allowableEnd = _totalNumber;\n        } else {\n            _allowableEnd = _end;\n        }\n\n        Post[] memory _list;\n\n        if (_allowableEnd <= _start) {\n            _list = new Post[](0);\n\n            return _list;\n        }\n\n        uint _currentNumber = _allowableEnd - _start;\n        uint _startOffset = _totalNumber - 1 - _start;\n\n        _list = new Post[](_currentNumber);\n\n        uint n = 0;\n        uint index = _startOffset;\n\n        while (n < _currentNumber) {\n            // check that it's not removed\n            if (bytes(self[index]).length != 0) {\n                _list[n] = cidToPost[self[index]];\n                n++;\n            }\n            if (index == 0) {\n                break;\n            }\n            index--;\n        }\n\n        return _list;\n    }\n}\n",
  "sourcePath": "/Users/mike/WebstormProjects/nft/contracts/MyProfile.sol",
  "compiler": {
    "name": "solc",
    "version": "0.8.19+commit.7dd6d404.Emscripten.clang"
  },
  "schemaVersion": "3.4.12",
  "updatedAt": "2023-03-14T01:58:48.490Z",
  "networkType": "ethereum",
  "devdoc": {
    "kind": "dev",
    "methods": {
      "owner()": {
        "details": "Returns the address of the current owner."
      },
      "renounceOwnership()": {
        "details": "Leaves the contract without owner. It will not be possible to call `onlyOwner` functions anymore. Can only be called by the current owner. NOTE: Renouncing ownership will leave the contract without an owner, thereby removing any functionality that is only available to the owner."
      },
      "transferOwnership(address)": {
        "details": "Transfers ownership of the contract to a new account (`newOwner`). Can only be called by the current owner."
      }
    },
    "version": 1
  },
  "userdoc": {
    "kind": "user",
    "methods": {},
    "version": 1
  }
}