{
  "contractName": "MyProfile",
  "abi": [
    {
      "anonymous": false,
      "inputs": [
        {
          "indexed": true,
          "internalType": "address",
          "name": "previousOwner",
          "type": "address"
        },
        {
          "indexed": true,
          "internalType": "address",
          "name": "newOwner",
          "type": "address"
        }
      ],
      "name": "OwnershipTransferred",
      "type": "event"
    },
    {
      "inputs": [],
      "name": "owner",
      "outputs": [
        {
          "internalType": "address",
          "name": "",
          "type": "address"
        }
      ],
      "stateMutability": "view",
      "type": "function"
    },
    {
      "inputs": [],
      "name": "renounceOwnership",
      "outputs": [],
      "stateMutability": "nonpayable",
      "type": "function"
    },
    {
      "inputs": [
        {
          "internalType": "address",
          "name": "newOwner",
          "type": "address"
        }
      ],
      "name": "transferOwnership",
      "outputs": [],
      "stateMutability": "nonpayable",
      "type": "function"
    },
    {
      "stateMutability": "payable",
      "type": "receive"
    },
    {
      "inputs": [
        {
          "internalType": "string",
          "name": "_postCid",
          "type": "string"
        },
        {
          "internalType": "string",
          "name": "_slug",
          "type": "string"
        },
        {
          "internalType": "uint64",
          "name": "_created",
          "type": "uint64"
        }
      ],
      "name": "createDraftPost",
      "outputs": [],
      "stateMutability": "nonpayable",
      "type": "function"
    },
    {
      "inputs": [
        {
          "internalType": "string",
          "name": "_postCid",
          "type": "string"
        }
      ],
      "name": "publishPost",
      "outputs": [],
      "stateMutability": "nonpayable",
      "type": "function"
    },
    {
      "inputs": [
        {
          "internalType": "string",
          "name": "_postCid",
          "type": "string"
        }
      ],
      "name": "archivePost",
      "outputs": [],
      "stateMutability": "nonpayable",
      "type": "function"
    },
    {
      "inputs": [
        {
          "internalType": "string",
          "name": "_oldPostCid",
          "type": "string"
        },
        {
          "internalType": "string",
          "name": "_newPostCid",
          "type": "string"
        }
      ],
      "name": "updatePost",
      "outputs": [],
      "stateMutability": "nonpayable",
      "type": "function"
    },
    {
      "inputs": [
        {
          "internalType": "string",
          "name": "_postCid",
          "type": "string"
        }
      ],
      "name": "getPost",
      "outputs": [
        {
          "components": [
            {
              "internalType": "enum MyProfile.PostStatus",
              "name": "status",
              "type": "uint8"
            },
            {
              "internalType": "string",
              "name": "cid",
              "type": "string"
            },
            {
              "internalType": "string",
              "name": "slug",
              "type": "string"
            },
            {
              "internalType": "uint64",
              "name": "created",
              "type": "uint64"
            },
            {
              "internalType": "uint256",
              "name": "index",
              "type": "uint256"
            }
          ],
          "internalType": "struct MyProfile.Post",
          "name": "",
          "type": "tuple"
        }
      ],
      "stateMutability": "view",
      "type": "function"
    },
    {
      "inputs": [
        {
          "internalType": "string",
          "name": "_slug",
          "type": "string"
        }
      ],
      "name": "getPostBySlug",
      "outputs": [
        {
          "components": [
            {
              "internalType": "enum MyProfile.PostStatus",
              "name": "status",
              "type": "uint8"
            },
            {
              "internalType": "string",
              "name": "cid",
              "type": "string"
            },
            {
              "internalType": "string",
              "name": "slug",
              "type": "string"
            },
            {
              "internalType": "uint64",
              "name": "created",
              "type": "uint64"
            },
            {
              "internalType": "uint256",
              "name": "index",
              "type": "uint256"
            }
          ],
          "internalType": "struct MyProfile.Post",
          "name": "",
          "type": "tuple"
        }
      ],
      "stateMutability": "view",
      "type": "function"
    },
    {
      "inputs": [
        {
          "internalType": "uint256",
          "name": "_start",
          "type": "uint256"
        },
        {
          "internalType": "uint256",
          "name": "_end",
          "type": "uint256"
        }
      ],
      "name": "getDraftPosts",
      "outputs": [
        {
          "components": [
            {
              "internalType": "enum MyProfile.PostStatus",
              "name": "status",
              "type": "uint8"
            },
            {
              "internalType": "string",
              "name": "cid",
              "type": "string"
            },
            {
              "internalType": "string",
              "name": "slug",
              "type": "string"
            },
            {
              "internalType": "uint64",
              "name": "created",
              "type": "uint64"
            },
            {
              "internalType": "uint256",
              "name": "index",
              "type": "uint256"
            }
          ],
          "internalType": "struct MyProfile.Post[]",
          "name": "",
          "type": "tuple[]"
        },
        {
          "internalType": "uint256",
          "name": "",
          "type": "uint256"
        }
      ],
      "stateMutability": "view",
      "type": "function"
    },
    {
      "inputs": [
        {
          "internalType": "uint256",
          "name": "_start",
          "type": "uint256"
        },
        {
          "internalType": "uint256",
          "name": "_end",
          "type": "uint256"
        }
      ],
      "name": "getPublishedPosts",
      "outputs": [
        {
          "components": [
            {
              "internalType": "enum MyProfile.PostStatus",
              "name": "status",
              "type": "uint8"
            },
            {
              "internalType": "string",
              "name": "cid",
              "type": "string"
            },
            {
              "internalType": "string",
              "name": "slug",
              "type": "string"
            },
            {
              "internalType": "uint64",
              "name": "created",
              "type": "uint64"
            },
            {
              "internalType": "uint256",
              "name": "index",
              "type": "uint256"
            }
          ],
          "internalType": "struct MyProfile.Post[]",
          "name": "",
          "type": "tuple[]"
        },
        {
          "internalType": "uint256",
          "name": "",
          "type": "uint256"
        }
      ],
      "stateMutability": "view",
      "type": "function"
    },
    {
      "inputs": [
        {
          "internalType": "uint256",
          "name": "_start",
          "type": "uint256"
        },
        {
          "internalType": "uint256",
          "name": "_end",
          "type": "uint256"
        }
      ],
      "name": "getArchivedPosts",
      "outputs": [
        {
          "components": [
            {
              "internalType": "enum MyProfile.PostStatus",
              "name": "status",
              "type": "uint8"
            },
            {
              "internalType": "string",
              "name": "cid",
              "type": "string"
            },
            {
              "internalType": "string",
              "name": "slug",
              "type": "string"
            },
            {
              "internalType": "uint64",
              "name": "created",
              "type": "uint64"
            },
            {
              "internalType": "uint256",
              "name": "index",
              "type": "uint256"
            }
          ],
          "internalType": "struct MyProfile.Post[]",
          "name": "",
          "type": "tuple[]"
        },
        {
          "internalType": "uint256",
          "name": "",
          "type": "uint256"
        }
      ],
      "stateMutability": "view",
      "type": "function"
    },
    {
      "inputs": [],
      "name": "withdraw",
      "outputs": [],
      "stateMutability": "nonpayable",
      "type": "function"
    },
    {
      "inputs": [
        {
          "internalType": "string[]",
          "name": "self",
          "type": "string[]"
        },
        {
          "internalType": "uint256",
          "name": "_start",
          "type": "uint256"
        },
        {
          "internalType": "uint256",
          "name": "_end",
          "type": "uint256"
        }
      ],
      "name": "_paginate",
      "outputs": [
        {
          "components": [
            {
              "internalType": "enum MyProfile.PostStatus",
              "name": "status",
              "type": "uint8"
            },
            {
              "internalType": "string",
              "name": "cid",
              "type": "string"
            },
            {
              "internalType": "string",
              "name": "slug",
              "type": "string"
            },
            {
              "internalType": "uint64",
              "name": "created",
              "type": "uint64"
            },
            {
              "internalType": "uint256",
              "name": "index",
              "type": "uint256"
            }
          ],
          "internalType": "struct MyProfile.Post[]",
          "name": "",
          "type": "tuple[]"
        }
      ],
      "stateMutability": "view",
      "type": "function"
    }
  ],
  "bytecode": "0x60806040523480156200001157600080fd5b5062000032620000266200003860201b60201c565b6200004060201b60201c565b62000104565b600033905090565b60008060009054906101000a900473ffffffffffffffffffffffffffffffffffffffff169050816000806101000a81548173ffffffffffffffffffffffffffffffffffffffff021916908373ffffffffffffffffffffffffffffffffffffffff1602179055508173ffffffffffffffffffffffffffffffffffffffff168173ffffffffffffffffffffffffffffffffffffffff167f8be0079c531659141344cd1fd0a4f28419497f9722a3daafe3b4186f6b6457e060405160405180910390a35050565b61319980620001146000396000f3fe6080604052600436106100e15760003560e01c8063920130341161007f578063d9a85fc111610059578063d9a85fc1146102b8578063df4a259b146102f5578063ea80667d14610332578063f2fde38b1461035b576100e8565b80639201303414610213578063b8c38e4614610251578063c57194631461028f576100e8565b80633ccfd60b116100bb5780633ccfd60b1461017c578063715018a61461019357806387484dcf146101aa5780638da5cb5b146101e8576100e8565b8063022b3826146100ed578063084d53721461012a578063306309be14610153576100e8565b366100e857005b600080fd5b3480156100f957600080fd5b50610114600480360381019061010f9190612007565b610384565b60405161012191906122dd565b60405180910390f35b34801561013657600080fd5b50610151600480360381019061014c91906122ff565b610749565b005b34801561015f57600080fd5b5061017a600480360381019061017591906123a3565b610b2a565b005b34801561018857600080fd5b50610191610e38565b005b34801561019f57600080fd5b506101a8610e89565b005b3480156101b657600080fd5b506101d160048036038101906101cc919061242e565b610e9d565b6040516101df92919061247d565b60405180910390f35b3480156101f457600080fd5b506101fd610fe0565b60405161020a91906124ee565b60405180910390f35b34801561021f57600080fd5b5061023a6004803603810190610235919061242e565b611009565b60405161024892919061247d565b60405180910390f35b34801561025d57600080fd5b506102786004803603810190610273919061242e565b61114c565b60405161028692919061247d565b60405180910390f35b34801561029b57600080fd5b506102b660048036038101906102b19190612509565b61128f565b005b3480156102c457600080fd5b506102df60048036038101906102da9190612509565b611585565b6040516102ec91906125cf565b60405180910390f35b34801561030157600080fd5b5061031c60048036038101906103179190612509565b611775565b60405161032991906125cf565b60405180910390f35b34801561033e57600080fd5b5061035960048036038101906103549190612509565b611948565b005b34801561036757600080fd5b50610382600480360381019061037d919061261d565b611b1c565b005b60606000831015801561039657508183105b6103d5576040517f08c379a00000000000000000000000000000000000000000000000000000000081526004016103cc906126a7565b60405180910390fd5b6000845190506000818411156103ed578190506103f1565b8390505b606085821161045c57600067ffffffffffffffff81111561041557610414611dbb565b5b60405190808252806020026020018201604052801561044e57816020015b61043b611ce9565b8152602001906001900390816104335790505b509050809350505050610742565b6000868361046a91906126f6565b905060008760018661047c91906126f6565b61048691906126f6565b90508167ffffffffffffffff8111156104a2576104a1611dbb565b5b6040519080825280602002602001820160405280156104db57816020015b6104c8611ce9565b8152602001906001900390816104c05790505b5092506000808290505b838210156107375760008b82815181106105025761050161272a565b5b6020026020010151511461071b5760018b82815181106105255761052461272a565b5b602002602001015160405161053a9190612795565b90815260200160405180910390206040518060a00160405290816000820160009054906101000a900460ff166002811115610578576105776120a2565b5b600281111561058a576105896120a2565b5b815260200160018201805461059e906127db565b80601f01602080910402602001604051908101604052809291908181526020018280546105ca906127db565b80156106175780601f106105ec57610100808354040283529160200191610617565b820191906000526020600020905b8154815290600101906020018083116105fa57829003601f168201915b50505050508152602001600282018054610630906127db565b80601f016020809104026020016040519081016040528092919081815260200182805461065c906127db565b80156106a95780601f1061067e576101008083540402835291602001916106a9565b820191906000526020600020905b81548152906001019060200180831161068c57829003601f168201915b505050505081526020016003820160009054906101000a900467ffffffffffffffff1667ffffffffffffffff1667ffffffffffffffff1681526020016004820154815250508583815181106107015761070061272a565b5b602002602001018190525081806107179061280c565b9250505b600081031561073757808061072f90612854565b9150506104e5565b849750505050505050505b9392505050565b610751611b9f565b600280811115610764576107636120a2565b5b6001836040516107749190612795565b908152602001604051809103902060000160009054906101000a900460ff1660028111156107a5576107a46120a2565b5b036107e5576040517f08c379a00000000000000000000000000000000000000000000000000000000081526004016107dc906128c9565b60405180910390fd5b6001826040516107f59190612795565b90815260200160405180910390206001826040516108139190612795565b90815260200160405180910390206000820160009054906101000a900460ff168160000160006101000a81548160ff02191690836002811115610859576108586120a2565b5b0217905550600182018160010190816108729190612aab565b50600282018160020190816108879190612aab565b506003820160009054906101000a900467ffffffffffffffff168160030160006101000a81548167ffffffffffffffff021916908367ffffffffffffffff16021790555060048201548160040155905050806001826040516108e99190612795565b908152602001604051809103902060010190816109069190612b93565b5080600260018360405161091a9190612795565b90815260200160405180910390206002016040516109389190612ce8565b908152602001604051809103902090816109529190612b93565b5060006002811115610967576109666120a2565b5b6001826040516109779190612795565b908152602001604051809103902060000160009054906101000a900460ff1660028111156109a8576109a76120a2565b5b03610a02578060036000016001836040516109c39190612795565b908152602001604051809103902060040154815481106109e6576109e561272a565b5b9060005260206000200190816109fc9190612b93565b50610aae565b60016002811115610a1657610a156120a2565b5b600182604051610a269190612795565b908152602001604051809103902060000160009054906101000a900460ff166002811115610a5757610a566120a2565b5b03610aad57806005600001600183604051610a729190612795565b90815260200160405180910390206004015481548110610a9557610a9461272a565b5b906000526020600020019081610aab9190612b93565b505b5b600182604051610abe9190612795565b9081526020016040518091039020600080820160006101000a81549060ff0219169055600182016000610af19190611d34565b600282016000610b019190611d34565b6003820160006101000a81549067ffffffffffffffff0219169055600482016000905550505050565b610b32611b9f565b60008167ffffffffffffffff1611610b7f576040517f08c379a0000000000000000000000000000000000000000000000000000000008152600401610b7690612d4b565b60405180910390fd5b6000825111610bc3576040517f08c379a0000000000000000000000000000000000000000000000000000000008152600401610bba90612db7565b60405180910390fd5b6000600184604051610bd59190612795565b908152602001604051809103902060030160009054906101000a900467ffffffffffffffff1667ffffffffffffffff1614610c45576040517f08c379a0000000000000000000000000000000000000000000000000000000008152600401610c3c90612e49565b60405180910390fd5b6000600283604051610c579190612795565b90815260200160405180910390208054610c70906127db565b905014610cb2576040517f08c379a0000000000000000000000000000000000000000000000000000000008152600401610ca990612eb5565b60405180910390fd5b6040518060a0016040528060006002811115610cd157610cd06120a2565b5b81526020018481526020018381526020018267ffffffffffffffff168152602001600360000180549050815250600184604051610d0e9190612795565b908152602001604051809103902060008201518160000160006101000a81548160ff02191690836002811115610d4757610d466120a2565b5b02179055506020820151816001019081610d619190612b93565b506040820151816002019081610d779190612b93565b5060608201518160030160006101000a81548167ffffffffffffffff021916908367ffffffffffffffff1602179055506080820151816004015590505082600283604051610dc59190612795565b90815260200160405180910390209081610ddf9190612b93565b50600360000183908060018154018082558091505060019003906000526020600020016000909190919091509081610e179190612b93565b5060036001016000815480929190610e2e9061280c565b9190505550505050565b610e40611b9f565b3373ffffffffffffffffffffffffffffffffffffffff166108fc479081150290604051600060405180830381858888f19350505050158015610e86573d6000803e3d6000fd5b50565b610e91611b9f565b610e9b6000611c1d565b565b6060600060328484610eaf91906126f6565b1115610ef0576040517f08c379a0000000000000000000000000000000000000000000000000000000008152600401610ee790612f47565b60405180910390fd5b610fcf6007600001805480602002602001604051908101604052809291908181526020016000905b82821015610fc4578382906000526020600020018054610f37906127db565b80601f0160208091040260200160405190810160405280929190818152602001828054610f63906127db565b8015610fb05780601f10610f8557610100808354040283529160200191610fb0565b820191906000526020600020905b815481529060010190602001808311610f9357829003601f168201915b505050505081526020019060010190610f18565b505050508585610384565b600760010154915091509250929050565b60008060009054906101000a900473ffffffffffffffffffffffffffffffffffffffff16905090565b606060006032848461101b91906126f6565b111561105c576040517f08c379a000000000000000000000000000000000000000000000000000000000815260040161105390612f47565b60405180910390fd5b61113b6003600001805480602002602001604051908101604052809291908181526020016000905b828210156111305783829060005260206000200180546110a3906127db565b80601f01602080910402602001604051908101604052809291908181526020018280546110cf906127db565b801561111c5780601f106110f15761010080835404028352916020019161111c565b820191906000526020600020905b8154815290600101906020018083116110ff57829003601f168201915b505050505081526020019060010190611084565b505050508585610384565b600360010154915091509250929050565b606060006032848461115e91906126f6565b111561119f576040517f08c379a000000000000000000000000000000000000000000000000000000000815260040161119690612f47565b60405180910390fd5b61127e6005600001805480602002602001604051908101604052809291908181526020016000905b828210156112735783829060005260206000200180546111e6906127db565b80601f0160208091040260200160405190810160405280929190818152602001828054611212906127db565b801561125f5780601f106112345761010080835404028352916020019161125f565b820191906000526020600020905b81548152906001019060200180831161124257829003601f168201915b5050505050815260200190600101906111c7565b505050508585610384565b600560010154915091509250929050565b611297611b9f565b600160028111156112ab576112aa6120a2565b5b6001826040516112bb9190612795565b908152602001604051809103902060000160009054906101000a900460ff1660028111156112ec576112eb6120a2565b5b0361132c576040517f08c379a000000000000000000000000000000000000000000000000000000000815260040161132390612fb3565b60405180910390fd5b600060028111156113405761133f6120a2565b5b6001826040516113509190612795565b908152602001604051809103902060000160009054906101000a900460ff166002811115611381576113806120a2565b5b036113f457600360000160018260405161139b9190612795565b908152602001604051809103902060040154815481106113be576113bd61272a565b5b9060005260206000200160006113d49190611d34565b600360010160008154809291906113ea90612854565b91905055506114b8565b600280811115611407576114066120a2565b5b6001826040516114179190612795565b908152602001604051809103902060000160009054906101000a900460ff166002811115611448576114476120a2565b5b036114b75760076000016001826040516114629190612795565b908152602001604051809103902060040154815481106114855761148461272a565b5b90600052602060002001600061149b9190611d34565b600760010160008154809291906114b190612854565b91905055505b5b600180826040516114c99190612795565b908152602001604051809103902060000160006101000a81548160ff021916908360028111156114fc576114fb6120a2565b5b021790555060056000018054905060018260405161151a9190612795565b9081526020016040518091039020600401819055506005600001819080600181540180825580915050600190039060005260206000200160009091909190915090816115669190612b93565b506005600101600081548092919061157d9061280c565b919050555050565b61158d611ce9565b600160028360405161159f9190612795565b90815260200160405180910390206040516115ba9190612ce8565b90815260200160405180910390206040518060a00160405290816000820160009054906101000a900460ff1660028111156115f8576115f76120a2565b5b600281111561160a576116096120a2565b5b815260200160018201805461161e906127db565b80601f016020809104026020016040519081016040528092919081815260200182805461164a906127db565b80156116975780601f1061166c57610100808354040283529160200191611697565b820191906000526020600020905b81548152906001019060200180831161167a57829003601f168201915b505050505081526020016002820180546116b0906127db565b80601f01602080910402602001604051908101604052809291908181526020018280546116dc906127db565b80156117295780601f106116fe57610100808354040283529160200191611729565b820191906000526020600020905b81548152906001019060200180831161170c57829003601f168201915b505050505081526020016003820160009054906101000a900467ffffffffffffffff1667ffffffffffffffff1667ffffffffffffffff1681526020016004820154815250509050919050565b61177d611ce9565b60018260405161178d9190612795565b90815260200160405180910390206040518060a00160405290816000820160009054906101000a900460ff1660028111156117cb576117ca6120a2565b5b60028111156117dd576117dc6120a2565b5b81526020016001820180546117f1906127db565b80601f016020809104026020016040519081016040528092919081815260200182805461181d906127db565b801561186a5780601f1061183f5761010080835404028352916020019161186a565b820191906000526020600020905b81548152906001019060200180831161184d57829003601f168201915b50505050508152602001600282018054611883906127db565b80601f01602080910402602001604051908101604052809291908181526020018280546118af906127db565b80156118fc5780601f106118d1576101008083540402835291602001916118fc565b820191906000526020600020905b8154815290600101906020018083116118df57829003601f168201915b505050505081526020016003820160009054906101000a900467ffffffffffffffff1667ffffffffffffffff1667ffffffffffffffff1681526020016004820154815250509050919050565b611950611b9f565b60016002811115611964576119636120a2565b5b6001826040516119749190612795565b908152602001604051809103902060000160009054906101000a900460ff1660028111156119a5576119a46120a2565b5b146119e5576040517f08c379a00000000000000000000000000000000000000000000000000000000081526004016119dc90613045565b60405180910390fd5b60056000016001826040516119fa9190612795565b90815260200160405180910390206004015481548110611a1d57611a1c61272a565b5b906000526020600020016000611a339190611d34565b60056001016000815480929190611a4990612854565b91905055506002600182604051611a609190612795565b908152602001604051809103902060000160006101000a81548160ff02191690836002811115611a9357611a926120a2565b5b0217905550600760000180549050600182604051611ab19190612795565b908152602001604051809103902060040181905550600760000181908060018154018082558091505060019003906000526020600020016000909190919091509081611afd9190612b93565b5060076001016000815480929190611b149061280c565b919050555050565b611b24611b9f565b600073ffffffffffffffffffffffffffffffffffffffff168173ffffffffffffffffffffffffffffffffffffffff1603611b93576040517f08c379a0000000000000000000000000000000000000000000000000000000008152600401611b8a906130d7565b60405180910390fd5b611b9c81611c1d565b50565b611ba7611ce1565b73ffffffffffffffffffffffffffffffffffffffff16611bc5610fe0565b73ffffffffffffffffffffffffffffffffffffffff1614611c1b576040517f08c379a0000000000000000000000000000000000000000000000000000000008152600401611c1290613143565b60405180910390fd5b565b60008060009054906101000a900473ffffffffffffffffffffffffffffffffffffffff169050816000806101000a81548173ffffffffffffffffffffffffffffffffffffffff021916908373ffffffffffffffffffffffffffffffffffffffff1602179055508173ffffffffffffffffffffffffffffffffffffffff168173ffffffffffffffffffffffffffffffffffffffff167f8be0079c531659141344cd1fd0a4f28419497f9722a3daafe3b4186f6b6457e060405160405180910390a35050565b600033905090565b6040518060a0016040528060006002811115611d0857611d076120a2565b5b81526020016060815260200160608152602001600067ffffffffffffffff168152602001600081525090565b508054611d40906127db565b6000825580601f10611d525750611d71565b601f016020900490600052602060002090810190611d709190611d74565b5b50565b5b80821115611d8d576000816000905550600101611d75565b5090565b6000604051905090565b600080fd5b600080fd5b600080fd5b6000601f19601f8301169050919050565b7f4e487b7100000000000000000000000000000000000000000000000000000000600052604160045260246000fd5b611df382611daa565b810181811067ffffffffffffffff82111715611e1257611e11611dbb565b5b80604052505050565b6000611e25611d91565b9050611e318282611dea565b919050565b600067ffffffffffffffff821115611e5157611e50611dbb565b5b602082029050602081019050919050565b600080fd5b600080fd5b600067ffffffffffffffff821115611e8757611e86611dbb565b5b611e9082611daa565b9050602081019050919050565b82818337600083830152505050565b6000611ebf611eba84611e6c565b611e1b565b905082815260208101848484011115611edb57611eda611e67565b5b611ee6848285611e9d565b509392505050565b600082601f830112611f0357611f02611da5565b5b8135611f13848260208601611eac565b91505092915050565b6000611f2f611f2a84611e36565b611e1b565b90508083825260208201905060208402830185811115611f5257611f51611e62565b5b835b81811015611f9957803567ffffffffffffffff811115611f7757611f76611da5565b5b808601611f848982611eee565b85526020850194505050602081019050611f54565b5050509392505050565b600082601f830112611fb857611fb7611da5565b5b8135611fc8848260208601611f1c565b91505092915050565b6000819050919050565b611fe481611fd1565b8114611fef57600080fd5b50565b60008135905061200181611fdb565b92915050565b6000806000606084860312156120205761201f611d9b565b5b600084013567ffffffffffffffff81111561203e5761203d611da0565b5b61204a86828701611fa3565b935050602061205b86828701611ff2565b925050604061206c86828701611ff2565b9150509250925092565b600081519050919050565b600082825260208201905092915050565b6000819050602082019050919050565b7f4e487b7100000000000000000000000000000000000000000000000000000000600052602160045260246000fd5b600381106120e2576120e16120a2565b5b50565b60008190506120f3826120d1565b919050565b6000612103826120e5565b9050919050565b612113816120f8565b82525050565b600081519050919050565b600082825260208201905092915050565b60005b83811015612153578082015181840152602081019050612138565b60008484015250505050565b600061216a82612119565b6121748185612124565b9350612184818560208601612135565b61218d81611daa565b840191505092915050565b600067ffffffffffffffff82169050919050565b6121b581612198565b82525050565b6121c481611fd1565b82525050565b600060a0830160008301516121e2600086018261210a565b50602083015184820360208601526121fa828261215f565b91505060408301518482036040860152612214828261215f565b915050606083015161222960608601826121ac565b50608083015161223c60808601826121bb565b508091505092915050565b600061225383836121ca565b905092915050565b6000602082019050919050565b600061227382612076565b61227d8185612081565b93508360208202850161228f85612092565b8060005b858110156122cb57848403895281516122ac8582612247565b94506122b78361225b565b925060208a01995050600181019050612293565b50829750879550505050505092915050565b600060208201905081810360008301526122f78184612268565b905092915050565b6000806040838503121561231657612315611d9b565b5b600083013567ffffffffffffffff81111561233457612333611da0565b5b61234085828601611eee565b925050602083013567ffffffffffffffff81111561236157612360611da0565b5b61236d85828601611eee565b9150509250929050565b61238081612198565b811461238b57600080fd5b50565b60008135905061239d81612377565b92915050565b6000806000606084860312156123bc576123bb611d9b565b5b600084013567ffffffffffffffff8111156123da576123d9611da0565b5b6123e686828701611eee565b935050602084013567ffffffffffffffff81111561240757612406611da0565b5b61241386828701611eee565b92505060406124248682870161238e565b9150509250925092565b6000806040838503121561244557612444611d9b565b5b600061245385828601611ff2565b925050602061246485828601611ff2565b9150509250929050565b61247781611fd1565b82525050565b600060408201905081810360008301526124978185612268565b90506124a6602083018461246e565b9392505050565b600073ffffffffffffffffffffffffffffffffffffffff82169050919050565b60006124d8826124ad565b9050919050565b6124e8816124cd565b82525050565b600060208201905061250360008301846124df565b92915050565b60006020828403121561251f5761251e611d9b565b5b600082013567ffffffffffffffff81111561253d5761253c611da0565b5b61254984828501611eee565b91505092915050565b600060a08301600083015161256a600086018261210a565b5060208301518482036020860152612582828261215f565b9150506040830151848203604086015261259c828261215f565b91505060608301516125b160608601826121ac565b5060808301516125c460808601826121bb565b508091505092915050565b600060208201905081810360008301526125e98184612552565b905092915050565b6125fa816124cd565b811461260557600080fd5b50565b600081359050612617816125f1565b92915050565b60006020828403121561263357612632611d9b565b5b600061264184828501612608565b91505092915050565b600082825260208201905092915050565b7f5f73746172742073686f756c64206265203e3d203020616e64203c205f656e64600082015250565b600061269160208361264a565b915061269c8261265b565b602082019050919050565b600060208201905081810360008301526126c081612684565b9050919050565b7f4e487b7100000000000000000000000000000000000000000000000000000000600052601160045260246000fd5b600061270182611fd1565b915061270c83611fd1565b9250828203905081811115612724576127236126c7565b5b92915050565b7f4e487b7100000000000000000000000000000000000000000000000000000000600052603260045260246000fd5b600081905092915050565b600061276f82612119565b6127798185612759565b9350612789818560208601612135565b80840191505092915050565b60006127a18284612764565b915081905092915050565b7f4e487b7100000000000000000000000000000000000000000000000000000000600052602260045260246000fd5b600060028204905060018216806127f357607f821691505b602082108103612806576128056127ac565b5b50919050565b600061281782611fd1565b91507fffffffffffffffffffffffffffffffffffffffffffffffffffffffffffffffff8203612849576128486126c7565b5b600182019050919050565b600061285f82611fd1565b915060008203612872576128716126c7565b5b600182039050919050565b7f74686520706f73742073686f756c64206e6f7420626520617263686976656400600082015250565b60006128b3601f8361264a565b91506128be8261287d565b602082019050919050565b600060208201905081810360008301526128e2816128a6565b9050919050565b6000815490506128f8816127db565b9050919050565b60008190508160005260206000209050919050565b60006020601f8301049050919050565b600082821b905092915050565b6000600883026129617fffffffffffffffffffffffffffffffffffffffffffffffffffffffffffffffff82612924565b61296b8683612924565b95508019841693508086168417925050509392505050565b6000819050919050565b60006129a86129a361299e84611fd1565b612983565b611fd1565b9050919050565b6000819050919050565b6129c28361298d565b6129d66129ce826129af565b848454612931565b825550505050565b600090565b6129eb6129de565b6129f68184846129b9565b505050565b5b81811015612a1a57612a0f6000826129e3565b6001810190506129fc565b5050565b601f821115612a5f57612a30816128ff565b612a3984612914565b81016020851015612a48578190505b612a5c612a5485612914565b8301826129fb565b50505b505050565b600082821c905092915050565b6000612a8260001984600802612a64565b1980831691505092915050565b6000612a9b8383612a71565b9150826002028217905092915050565b818103612ab9575050612b91565b612ac2826128e9565b67ffffffffffffffff811115612adb57612ada611dbb565b5b612ae582546127db565b612af0828285612a1e565b6000601f831160018114612b1f5760008415612b0d578287015490505b612b178582612a8f565b865550612b8a565b601f198416612b2d876128ff565b9650612b38866128ff565b60005b82811015612b6057848901548255600182019150600185019450602081019050612b3b565b86831015612b7d5784890154612b79601f891682612a71565b8355505b6001600288020188555050505b5050505050505b565b612b9c82612119565b67ffffffffffffffff811115612bb557612bb4611dbb565b5b612bbf82546127db565b612bca828285612a1e565b600060209050601f831160018114612bfd5760008415612beb578287015190505b612bf58582612a8f565b865550612c5d565b601f198416612c0b866128ff565b60005b82811015612c3357848901518255600182019150602085019450602081019050612c0e565b86831015612c505784890151612c4c601f891682612a71565b8355505b6001600288020188555050505b505050505050565b60008154612c72816127db565b612c7c8186612759565b94506001821660008114612c975760018114612cac57612cdf565b60ff1983168652811515820286019350612cdf565b612cb5856128ff565b60005b83811015612cd757815481890152600182019150602081019050612cb8565b838801955050505b50505092915050565b6000612cf48284612c65565b915081905092915050565b7f637265617465642074696d652073686f756c64206265203e2030000000000000600082015250565b6000612d35601a8361264a565b9150612d4082612cff565b602082019050919050565b60006020820190508181036000830152612d6481612d28565b9050919050565b7f736c75672063616e6e6f7420626520656d707479000000000000000000000000600082015250565b6000612da160148361264a565b9150612dac82612d6b565b602082019050919050565b60006020820190508181036000830152612dd081612d94565b9050919050565b7f74686520706f73742077697468207061737365642043494420697320616c726560008201527f6164792070726573656e74000000000000000000000000000000000000000000602082015250565b6000612e33602b8361264a565b9150612e3e82612dd7565b604082019050919050565b60006020820190508181036000830152612e6281612e26565b9050919050565b7f736c75672073686f756c6420626520756e697175650000000000000000000000600082015250565b6000612e9f60158361264a565b9150612eaa82612e69565b602082019050919050565b60006020820190508181036000830152612ece81612e92565b9050919050565b7f646966666572656e74206265747765656e205f656e6420616e64205f7374617260008201527f742063616e6e6f74206265203e20353000000000000000000000000000000000602082015250565b6000612f3160308361264a565b9150612f3c82612ed5565b604082019050919050565b60006020820190508181036000830152612f6081612f24565b9050919050565b7f74686520706f737420697320616c7265616479207075626c6973686564000000600082015250565b6000612f9d601d8361264a565b9150612fa882612f67565b602082019050919050565b60006020820190508181036000830152612fcc81612f90565b9050919050565b7f74686520706f73742073686f756c64206265207075626c697368656420746f2060008201527f6172636869766500000000000000000000000000000000000000000000000000602082015250565b600061302f60278361264a565b915061303a82612fd3565b604082019050919050565b6000602082019050818103600083015261305e81613022565b9050919050565b7f4f776e61626c653a206e6577206f776e657220697320746865207a65726f206160008201527f6464726573730000000000000000000000000000000000000000000000000000602082015250565b60006130c160268361264a565b91506130cc82613065565b604082019050919050565b600060208201905081810360008301526130f0816130b4565b9050919050565b7f4f776e61626c653a2063616c6c6572206973206e6f7420746865206f776e6572600082015250565b600061312d60208361264a565b9150613138826130f7565b602082019050919050565b6000602082019050818103600083015261315c81613120565b905091905056fea2646970667358221220b395669c3824da9b077598deb37a0cc83dd1f81d6ea0a4ef1c4ef17accb80bfb64736f6c63430008130033",
  "immutableReferences": {},
  "source": "// SPDX-License-Identifier: MIT\n\npragma solidity 0.8.19;\n\nimport \"@openzeppelin/contracts/access/Ownable.sol\";\n\ncontract MyProfile is Ownable {\n    enum PostStatus {\n        DRAFT,\n        PUBLISHED,\n        ARCHIVED\n    }\n\n    struct Post {\n        PostStatus status;\n        string cid;\n        string slug;\n        uint64 created;\n        // the index where post is placed in published posts list\n        uint index;\n    }\n\n    struct PostsList {\n        string[] list;\n        uint length;\n    }\n\n    // postCID => Post\n    mapping(string => Post) private postsMap;\n    // slug => postCID\n    mapping(string => string) private slugPostCidMap;\n\n    PostsList private draftPosts;\n    PostsList private publishedPosts;\n    PostsList private archivedPosts;\n\n    receive() external payable {}\n\n    function createDraftPost(\n        string memory _postCid,\n        string memory _slug,\n        uint64 _created\n    ) public onlyOwner {\n        require(_created > 0, \"created time should be > 0\");\n        require(bytes(_slug).length > 0, \"slug cannot be empty\");\n        require(postsMap[_postCid].created == 0, \"the post with passed CID is already present\");\n        require(bytes(slugPostCidMap[_slug]).length == 0, \"slug should be unique\");\n\n        postsMap[_postCid] = Post({\n            status: PostStatus.DRAFT,\n            cid: _postCid,\n            slug: _slug,\n            created: _created,\n            index: draftPosts.list.length\n        });\n\n        slugPostCidMap[_slug] = _postCid;\n\n        draftPosts.list.push(_postCid);\n        draftPosts.length++;\n    }\n\n    function publishPost(string memory _postCid) public onlyOwner {\n        require(postsMap[_postCid].status != PostStatus.PUBLISHED, \"the post is already published\");\n\n        if (postsMap[_postCid].status == PostStatus.DRAFT) {\n            delete draftPosts.list[postsMap[_postCid].index];\n            draftPosts.length--;\n            //\n        } else if (postsMap[_postCid].status == PostStatus.ARCHIVED) {\n            delete archivedPosts.list[postsMap[_postCid].index];\n            archivedPosts.length--;\n        }\n\n        postsMap[_postCid].status = PostStatus.PUBLISHED;\n        postsMap[_postCid].index = publishedPosts.list.length;\n\n        publishedPosts.list.push(_postCid);\n        publishedPosts.length++;\n    }\n\n    function archivePost(string memory _postCid) public onlyOwner {\n        require(\n            postsMap[_postCid].status == PostStatus.PUBLISHED,\n            \"the post should be published to archive\"\n        );\n\n        delete publishedPosts.list[postsMap[_postCid].index];\n        publishedPosts.length--;\n\n        postsMap[_postCid].status = PostStatus.ARCHIVED;\n        postsMap[_postCid].index = archivedPosts.list.length;\n\n        archivedPosts.list.push(_postCid);\n        archivedPosts.length++;\n    }\n\n    /*\n    Replace post CID with new CID\n\n    Restrictions:\n    - A post should be in DRAFT or PUBLISHED status\n    - A post cannot be ARCHIVED\n    */\n    function updatePost(string memory _oldPostCid, string memory _newPostCid) public onlyOwner {\n        require(\n            postsMap[_oldPostCid].status != PostStatus.ARCHIVED,\n            \"the post should not be archived\"\n        );\n\n        // copy old post data to new (updated) post\n        postsMap[_newPostCid] = postsMap[_oldPostCid];\n        postsMap[_newPostCid].cid = _newPostCid;\n        // update slug -> post CID with new post CID to resolve new post (updated) by slug\n        slugPostCidMap[postsMap[_newPostCid].slug] = _newPostCid;\n\n        if (postsMap[_newPostCid].status == PostStatus.DRAFT) {\n            // replace old post CID with new CID\n            draftPosts.list[postsMap[_newPostCid].index] = _newPostCid;\n            //\n        } else if (postsMap[_newPostCid].status == PostStatus.PUBLISHED) {\n            publishedPosts.list[postsMap[_newPostCid].index] = _newPostCid;\n        }\n\n        // remove old post data\n        delete postsMap[_oldPostCid];\n    }\n\n    function getPost(string memory _postCid) public view returns (Post memory) {\n        return postsMap[_postCid];\n    }\n\n    function getPostBySlug(string memory _slug) public view returns (Post memory) {\n        return postsMap[slugPostCidMap[_slug]];\n    }\n\n    function getDraftPosts(uint _start, uint _end) public view returns (Post[] memory, uint) {\n        require(_end - _start <= 50, \"different between _end and _start cannot be > 50\");\n\n        return (_paginate(draftPosts.list, _start, _end), draftPosts.length);\n    }\n\n    function getPublishedPosts(uint _start, uint _end) public view returns (Post[] memory, uint) {\n        require(_end - _start <= 50, \"different between _end and _start cannot be > 50\");\n\n        return (_paginate(publishedPosts.list, _start, _end), publishedPosts.length);\n    }\n\n    function getArchivedPosts(uint _start, uint _end) public view returns (Post[] memory, uint) {\n        require(_end - _start <= 50, \"different between _end and _start cannot be > 50\");\n\n        return (_paginate(archivedPosts.list, _start, _end), archivedPosts.length);\n    }\n\n    function withdraw() public onlyOwner {\n        payable(msg.sender).transfer(address(this).balance);\n    }\n\n    function _paginate(\n        string[] memory self,\n        uint _start,\n        uint _end\n    ) public view returns (Post[] memory) {\n        require(_start >= 0 && _start < _end, \"_start should be >= 0 and < _end\");\n\n        uint _totalNumber = self.length;\n        uint _allowableEnd;\n\n        if (_end > _totalNumber) {\n            _allowableEnd = _totalNumber;\n        } else {\n            _allowableEnd = _end;\n        }\n\n        Post[] memory _list;\n\n        if (_allowableEnd <= _start) {\n            _list = new Post[](0);\n\n            return _list;\n        }\n\n        uint _currentNumber = _allowableEnd - _start;\n        uint _startOffset = _totalNumber - 1 - _start;\n\n        _list = new Post[](_currentNumber);\n\n        uint n = 0;\n        uint index = _startOffset;\n\n        while (n < _currentNumber) {\n            // check that it's not removed\n            if (bytes(self[index]).length != 0) {\n                _list[n] = postsMap[self[index]];\n                n++;\n            }\n            if (index == 0) {\n                break;\n            }\n            index--;\n        }\n\n        return _list;\n    }\n}\n",
  "sourcePath": "/Users/mike/WebstormProjects/nft/contracts/MyProfile.sol",
  "compiler": {
    "name": "solc",
    "version": "0.8.19+commit.7dd6d404.Emscripten.clang"
  },
  "schemaVersion": "3.4.12",
  "updatedAt": "2023-03-12T01:45:20.277Z",
  "devdoc": {
    "kind": "dev",
    "methods": {
      "owner()": {
        "details": "Returns the address of the current owner."
      },
      "renounceOwnership()": {
        "details": "Leaves the contract without owner. It will not be possible to call `onlyOwner` functions anymore. Can only be called by the current owner. NOTE: Renouncing ownership will leave the contract without an owner, thereby removing any functionality that is only available to the owner."
      },
      "transferOwnership(address)": {
        "details": "Transfers ownership of the contract to a new account (`newOwner`). Can only be called by the current owner."
      }
    },
    "version": 1
  },
  "userdoc": {
    "kind": "user",
    "methods": {},
    "version": 1
  }
}