{
  "contractName": "MyProfile",
  "abi": [
    {
      "anonymous": false,
      "inputs": [
        {
          "indexed": true,
          "internalType": "address",
          "name": "previousOwner",
          "type": "address"
        },
        {
          "indexed": true,
          "internalType": "address",
          "name": "newOwner",
          "type": "address"
        }
      ],
      "name": "OwnershipTransferred",
      "type": "event"
    },
    {
      "inputs": [],
      "name": "owner",
      "outputs": [
        {
          "internalType": "address",
          "name": "",
          "type": "address"
        }
      ],
      "stateMutability": "view",
      "type": "function"
    },
    {
      "inputs": [],
      "name": "renounceOwnership",
      "outputs": [],
      "stateMutability": "nonpayable",
      "type": "function"
    },
    {
      "inputs": [
        {
          "internalType": "address",
          "name": "newOwner",
          "type": "address"
        }
      ],
      "name": "transferOwnership",
      "outputs": [],
      "stateMutability": "nonpayable",
      "type": "function"
    },
    {
      "inputs": [
        {
          "internalType": "string",
          "name": "_postCid",
          "type": "string"
        },
        {
          "internalType": "string",
          "name": "_slug",
          "type": "string"
        },
        {
          "internalType": "uint64",
          "name": "_created",
          "type": "uint64"
        }
      ],
      "name": "createDraftPost",
      "outputs": [],
      "stateMutability": "nonpayable",
      "type": "function"
    },
    {
      "inputs": [
        {
          "internalType": "string",
          "name": "_postCid",
          "type": "string"
        }
      ],
      "name": "publishPost",
      "outputs": [],
      "stateMutability": "nonpayable",
      "type": "function"
    },
    {
      "inputs": [
        {
          "internalType": "string",
          "name": "_postCid",
          "type": "string"
        }
      ],
      "name": "archivePost",
      "outputs": [],
      "stateMutability": "nonpayable",
      "type": "function"
    },
    {
      "inputs": [
        {
          "internalType": "string",
          "name": "_oldPostCid",
          "type": "string"
        },
        {
          "internalType": "string",
          "name": "_newPostCid",
          "type": "string"
        }
      ],
      "name": "updatePost",
      "outputs": [],
      "stateMutability": "nonpayable",
      "type": "function"
    },
    {
      "inputs": [
        {
          "internalType": "string",
          "name": "_postCid",
          "type": "string"
        }
      ],
      "name": "getPost",
      "outputs": [
        {
          "components": [
            {
              "internalType": "enum MyProfile.PostStatus",
              "name": "status",
              "type": "uint8"
            },
            {
              "internalType": "string",
              "name": "cid",
              "type": "string"
            },
            {
              "internalType": "string",
              "name": "slug",
              "type": "string"
            },
            {
              "internalType": "uint64",
              "name": "created",
              "type": "uint64"
            },
            {
              "internalType": "uint256",
              "name": "index",
              "type": "uint256"
            }
          ],
          "internalType": "struct MyProfile.Post",
          "name": "",
          "type": "tuple"
        }
      ],
      "stateMutability": "view",
      "type": "function"
    },
    {
      "inputs": [
        {
          "internalType": "string",
          "name": "_slug",
          "type": "string"
        }
      ],
      "name": "getPostBySlug",
      "outputs": [
        {
          "components": [
            {
              "internalType": "enum MyProfile.PostStatus",
              "name": "status",
              "type": "uint8"
            },
            {
              "internalType": "string",
              "name": "cid",
              "type": "string"
            },
            {
              "internalType": "string",
              "name": "slug",
              "type": "string"
            },
            {
              "internalType": "uint64",
              "name": "created",
              "type": "uint64"
            },
            {
              "internalType": "uint256",
              "name": "index",
              "type": "uint256"
            }
          ],
          "internalType": "struct MyProfile.Post",
          "name": "",
          "type": "tuple"
        }
      ],
      "stateMutability": "view",
      "type": "function"
    },
    {
      "inputs": [
        {
          "internalType": "uint256",
          "name": "_start",
          "type": "uint256"
        },
        {
          "internalType": "uint256",
          "name": "_end",
          "type": "uint256"
        }
      ],
      "name": "getDraftPosts",
      "outputs": [
        {
          "components": [
            {
              "internalType": "enum MyProfile.PostStatus",
              "name": "status",
              "type": "uint8"
            },
            {
              "internalType": "string",
              "name": "cid",
              "type": "string"
            },
            {
              "internalType": "string",
              "name": "slug",
              "type": "string"
            },
            {
              "internalType": "uint64",
              "name": "created",
              "type": "uint64"
            },
            {
              "internalType": "uint256",
              "name": "index",
              "type": "uint256"
            }
          ],
          "internalType": "struct MyProfile.Post[]",
          "name": "",
          "type": "tuple[]"
        },
        {
          "internalType": "uint256",
          "name": "",
          "type": "uint256"
        }
      ],
      "stateMutability": "view",
      "type": "function"
    },
    {
      "inputs": [
        {
          "internalType": "uint256",
          "name": "_start",
          "type": "uint256"
        },
        {
          "internalType": "uint256",
          "name": "_end",
          "type": "uint256"
        }
      ],
      "name": "getPublishedPosts",
      "outputs": [
        {
          "components": [
            {
              "internalType": "enum MyProfile.PostStatus",
              "name": "status",
              "type": "uint8"
            },
            {
              "internalType": "string",
              "name": "cid",
              "type": "string"
            },
            {
              "internalType": "string",
              "name": "slug",
              "type": "string"
            },
            {
              "internalType": "uint64",
              "name": "created",
              "type": "uint64"
            },
            {
              "internalType": "uint256",
              "name": "index",
              "type": "uint256"
            }
          ],
          "internalType": "struct MyProfile.Post[]",
          "name": "",
          "type": "tuple[]"
        },
        {
          "internalType": "uint256",
          "name": "",
          "type": "uint256"
        }
      ],
      "stateMutability": "view",
      "type": "function"
    },
    {
      "inputs": [
        {
          "internalType": "uint256",
          "name": "_start",
          "type": "uint256"
        },
        {
          "internalType": "uint256",
          "name": "_end",
          "type": "uint256"
        }
      ],
      "name": "getArchivedPosts",
      "outputs": [
        {
          "components": [
            {
              "internalType": "enum MyProfile.PostStatus",
              "name": "status",
              "type": "uint8"
            },
            {
              "internalType": "string",
              "name": "cid",
              "type": "string"
            },
            {
              "internalType": "string",
              "name": "slug",
              "type": "string"
            },
            {
              "internalType": "uint64",
              "name": "created",
              "type": "uint64"
            },
            {
              "internalType": "uint256",
              "name": "index",
              "type": "uint256"
            }
          ],
          "internalType": "struct MyProfile.Post[]",
          "name": "",
          "type": "tuple[]"
        },
        {
          "internalType": "uint256",
          "name": "",
          "type": "uint256"
        }
      ],
      "stateMutability": "view",
      "type": "function"
    },
    {
      "inputs": [
        {
          "internalType": "string[]",
          "name": "self",
          "type": "string[]"
        },
        {
          "internalType": "uint256",
          "name": "_start",
          "type": "uint256"
        },
        {
          "internalType": "uint256",
          "name": "_end",
          "type": "uint256"
        }
      ],
      "name": "_paginate",
      "outputs": [
        {
          "components": [
            {
              "internalType": "enum MyProfile.PostStatus",
              "name": "status",
              "type": "uint8"
            },
            {
              "internalType": "string",
              "name": "cid",
              "type": "string"
            },
            {
              "internalType": "string",
              "name": "slug",
              "type": "string"
            },
            {
              "internalType": "uint64",
              "name": "created",
              "type": "uint64"
            },
            {
              "internalType": "uint256",
              "name": "index",
              "type": "uint256"
            }
          ],
          "internalType": "struct MyProfile.Post[]",
          "name": "",
          "type": "tuple[]"
        }
      ],
      "stateMutability": "view",
      "type": "function"
    }
  ],
  "bytecode": "0x60806040523480156200001157600080fd5b5062000032620000266200003860201b60201c565b6200004060201b60201c565b62000104565b600033905090565b60008060009054906101000a900473ffffffffffffffffffffffffffffffffffffffff169050816000806101000a81548173ffffffffffffffffffffffffffffffffffffffff021916908373ffffffffffffffffffffffffffffffffffffffff1602179055508173ffffffffffffffffffffffffffffffffffffffff168173ffffffffffffffffffffffffffffffffffffffff167f8be0079c531659141344cd1fd0a4f28419497f9722a3daafe3b4186f6b6457e060405160405180910390a35050565b61306f80620001146000396000f3fe608060405234801561001057600080fd5b50600436106100cf5760003560e01c8063920130341161008c578063d9a85fc111610066578063d9a85fc114610213578063df4a259b14610243578063ea80667d14610273578063f2fde38b1461028f576100cf565b80639201303414610195578063b8c38e46146101c6578063c5719463146101f7576100cf565b8063022b3826146100d4578063084d537214610104578063306309be14610120578063715018a61461013c57806387484dcf146101465780638da5cb5b14610177575b600080fd5b6100ee60048036038101906100e99190611edd565b6102ab565b6040516100fb91906121b3565b60405180910390f35b61011e600480360381019061011991906121d5565b610670565b005b61013a60048036038101906101359190612279565b610a51565b005b610144610d5f565b005b610160600480360381019061015b9190612304565b610d73565b60405161016e929190612353565b60405180910390f35b61017f610eb6565b60405161018c91906123c4565b60405180910390f35b6101af60048036038101906101aa9190612304565b610edf565b6040516101bd929190612353565b60405180910390f35b6101e060048036038101906101db9190612304565b611022565b6040516101ee929190612353565b60405180910390f35b610211600480360381019061020c91906123df565b611165565b005b61022d600480360381019061022891906123df565b61145b565b60405161023a91906124a5565b60405180910390f35b61025d600480360381019061025891906123df565b61164b565b60405161026a91906124a5565b60405180910390f35b61028d600480360381019061028891906123df565b61181e565b005b6102a960048036038101906102a491906124f3565b6119f2565b005b6060600083101580156102bd57508183105b6102fc576040517f08c379a00000000000000000000000000000000000000000000000000000000081526004016102f39061257d565b60405180910390fd5b60008451905060008184111561031457819050610318565b8390505b606085821161038357600067ffffffffffffffff81111561033c5761033b611c91565b5b60405190808252806020026020018201604052801561037557816020015b610362611bbf565b81526020019060019003908161035a5790505b509050809350505050610669565b6000868361039191906125cc565b90506000876001866103a391906125cc565b6103ad91906125cc565b90508167ffffffffffffffff8111156103c9576103c8611c91565b5b60405190808252806020026020018201604052801561040257816020015b6103ef611bbf565b8152602001906001900390816103e75790505b5092506000808290505b8382101561065e5760008b828151811061042957610428612600565b5b602002602001015151146106425760018b828151811061044c5761044b612600565b5b6020026020010151604051610461919061266b565b90815260200160405180910390206040518060a00160405290816000820160009054906101000a900460ff16600281111561049f5761049e611f78565b5b60028111156104b1576104b0611f78565b5b81526020016001820180546104c5906126b1565b80601f01602080910402602001604051908101604052809291908181526020018280546104f1906126b1565b801561053e5780601f106105135761010080835404028352916020019161053e565b820191906000526020600020905b81548152906001019060200180831161052157829003601f168201915b50505050508152602001600282018054610557906126b1565b80601f0160208091040260200160405190810160405280929190818152602001828054610583906126b1565b80156105d05780601f106105a5576101008083540402835291602001916105d0565b820191906000526020600020905b8154815290600101906020018083116105b357829003601f168201915b505050505081526020016003820160009054906101000a900467ffffffffffffffff1667ffffffffffffffff1667ffffffffffffffff16815260200160048201548152505085838151811061062857610627612600565b5b6020026020010181905250818061063e906126e2565b9250505b600081031561065e5780806106569061272a565b91505061040c565b849750505050505050505b9392505050565b610678611a75565b60028081111561068b5761068a611f78565b5b60018360405161069b919061266b565b908152602001604051809103902060000160009054906101000a900460ff1660028111156106cc576106cb611f78565b5b0361070c576040517f08c379a00000000000000000000000000000000000000000000000000000000081526004016107039061279f565b60405180910390fd5b60018260405161071c919061266b565b908152602001604051809103902060018260405161073a919061266b565b90815260200160405180910390206000820160009054906101000a900460ff168160000160006101000a81548160ff021916908360028111156107805761077f611f78565b5b0217905550600182018160010190816107999190612981565b50600282018160020190816107ae9190612981565b506003820160009054906101000a900467ffffffffffffffff168160030160006101000a81548167ffffffffffffffff021916908367ffffffffffffffff1602179055506004820154816004015590505080600182604051610810919061266b565b9081526020016040518091039020600101908161082d9190612a69565b50806002600183604051610841919061266b565b908152602001604051809103902060020160405161085f9190612bbe565b908152602001604051809103902090816108799190612a69565b506000600281111561088e5761088d611f78565b5b60018260405161089e919061266b565b908152602001604051809103902060000160009054906101000a900460ff1660028111156108cf576108ce611f78565b5b03610929578060036000016001836040516108ea919061266b565b9081526020016040518091039020600401548154811061090d5761090c612600565b5b9060005260206000200190816109239190612a69565b506109d5565b6001600281111561093d5761093c611f78565b5b60018260405161094d919061266b565b908152602001604051809103902060000160009054906101000a900460ff16600281111561097e5761097d611f78565b5b036109d457806005600001600183604051610999919061266b565b908152602001604051809103902060040154815481106109bc576109bb612600565b5b9060005260206000200190816109d29190612a69565b505b5b6001826040516109e5919061266b565b9081526020016040518091039020600080820160006101000a81549060ff0219169055600182016000610a189190611c0a565b600282016000610a289190611c0a565b6003820160006101000a81549067ffffffffffffffff0219169055600482016000905550505050565b610a59611a75565b60008167ffffffffffffffff1611610aa6576040517f08c379a0000000000000000000000000000000000000000000000000000000008152600401610a9d90612c21565b60405180910390fd5b6000825111610aea576040517f08c379a0000000000000000000000000000000000000000000000000000000008152600401610ae190612c8d565b60405180910390fd5b6000600184604051610afc919061266b565b908152602001604051809103902060030160009054906101000a900467ffffffffffffffff1667ffffffffffffffff1614610b6c576040517f08c379a0000000000000000000000000000000000000000000000000000000008152600401610b6390612d1f565b60405180910390fd5b6000600283604051610b7e919061266b565b90815260200160405180910390208054610b97906126b1565b905014610bd9576040517f08c379a0000000000000000000000000000000000000000000000000000000008152600401610bd090612d8b565b60405180910390fd5b6040518060a0016040528060006002811115610bf857610bf7611f78565b5b81526020018481526020018381526020018267ffffffffffffffff168152602001600360000180549050815250600184604051610c35919061266b565b908152602001604051809103902060008201518160000160006101000a81548160ff02191690836002811115610c6e57610c6d611f78565b5b02179055506020820151816001019081610c889190612a69565b506040820151816002019081610c9e9190612a69565b5060608201518160030160006101000a81548167ffffffffffffffff021916908367ffffffffffffffff1602179055506080820151816004015590505082600283604051610cec919061266b565b90815260200160405180910390209081610d069190612a69565b50600360000183908060018154018082558091505060019003906000526020600020016000909190919091509081610d3e9190612a69565b5060036001016000815480929190610d55906126e2565b9190505550505050565b610d67611a75565b610d716000611af3565b565b6060600060328484610d8591906125cc565b1115610dc6576040517f08c379a0000000000000000000000000000000000000000000000000000000008152600401610dbd90612e1d565b60405180910390fd5b610ea56007600001805480602002602001604051908101604052809291908181526020016000905b82821015610e9a578382906000526020600020018054610e0d906126b1565b80601f0160208091040260200160405190810160405280929190818152602001828054610e39906126b1565b8015610e865780601f10610e5b57610100808354040283529160200191610e86565b820191906000526020600020905b815481529060010190602001808311610e6957829003601f168201915b505050505081526020019060010190610dee565b5050505085856102ab565b600760010154915091509250929050565b60008060009054906101000a900473ffffffffffffffffffffffffffffffffffffffff16905090565b6060600060328484610ef191906125cc565b1115610f32576040517f08c379a0000000000000000000000000000000000000000000000000000000008152600401610f2990612e1d565b60405180910390fd5b6110116003600001805480602002602001604051908101604052809291908181526020016000905b82821015611006578382906000526020600020018054610f79906126b1565b80601f0160208091040260200160405190810160405280929190818152602001828054610fa5906126b1565b8015610ff25780601f10610fc757610100808354040283529160200191610ff2565b820191906000526020600020905b815481529060010190602001808311610fd557829003601f168201915b505050505081526020019060010190610f5a565b5050505085856102ab565b600360010154915091509250929050565b606060006032848461103491906125cc565b1115611075576040517f08c379a000000000000000000000000000000000000000000000000000000000815260040161106c90612e1d565b60405180910390fd5b6111546005600001805480602002602001604051908101604052809291908181526020016000905b828210156111495783829060005260206000200180546110bc906126b1565b80601f01602080910402602001604051908101604052809291908181526020018280546110e8906126b1565b80156111355780601f1061110a57610100808354040283529160200191611135565b820191906000526020600020905b81548152906001019060200180831161111857829003601f168201915b50505050508152602001906001019061109d565b5050505085856102ab565b600560010154915091509250929050565b61116d611a75565b6001600281111561118157611180611f78565b5b600182604051611191919061266b565b908152602001604051809103902060000160009054906101000a900460ff1660028111156111c2576111c1611f78565b5b03611202576040517f08c379a00000000000000000000000000000000000000000000000000000000081526004016111f990612e89565b60405180910390fd5b6000600281111561121657611215611f78565b5b600182604051611226919061266b565b908152602001604051809103902060000160009054906101000a900460ff16600281111561125757611256611f78565b5b036112ca576003600001600182604051611271919061266b565b9081526020016040518091039020600401548154811061129457611293612600565b5b9060005260206000200160006112aa9190611c0a565b600360010160008154809291906112c09061272a565b919050555061138e565b6002808111156112dd576112dc611f78565b5b6001826040516112ed919061266b565b908152602001604051809103902060000160009054906101000a900460ff16600281111561131e5761131d611f78565b5b0361138d576007600001600182604051611338919061266b565b9081526020016040518091039020600401548154811061135b5761135a612600565b5b9060005260206000200160006113719190611c0a565b600760010160008154809291906113879061272a565b91905055505b5b6001808260405161139f919061266b565b908152602001604051809103902060000160006101000a81548160ff021916908360028111156113d2576113d1611f78565b5b02179055506005600001805490506001826040516113f0919061266b565b90815260200160405180910390206004018190555060056000018190806001815401808255809150506001900390600052602060002001600090919091909150908161143c9190612a69565b5060056001016000815480929190611453906126e2565b919050555050565b611463611bbf565b6001600283604051611475919061266b565b90815260200160405180910390206040516114909190612bbe565b90815260200160405180910390206040518060a00160405290816000820160009054906101000a900460ff1660028111156114ce576114cd611f78565b5b60028111156114e0576114df611f78565b5b81526020016001820180546114f4906126b1565b80601f0160208091040260200160405190810160405280929190818152602001828054611520906126b1565b801561156d5780601f106115425761010080835404028352916020019161156d565b820191906000526020600020905b81548152906001019060200180831161155057829003601f168201915b50505050508152602001600282018054611586906126b1565b80601f01602080910402602001604051908101604052809291908181526020018280546115b2906126b1565b80156115ff5780601f106115d4576101008083540402835291602001916115ff565b820191906000526020600020905b8154815290600101906020018083116115e257829003601f168201915b505050505081526020016003820160009054906101000a900467ffffffffffffffff1667ffffffffffffffff1667ffffffffffffffff1681526020016004820154815250509050919050565b611653611bbf565b600182604051611663919061266b565b90815260200160405180910390206040518060a00160405290816000820160009054906101000a900460ff1660028111156116a1576116a0611f78565b5b60028111156116b3576116b2611f78565b5b81526020016001820180546116c7906126b1565b80601f01602080910402602001604051908101604052809291908181526020018280546116f3906126b1565b80156117405780601f1061171557610100808354040283529160200191611740565b820191906000526020600020905b81548152906001019060200180831161172357829003601f168201915b50505050508152602001600282018054611759906126b1565b80601f0160208091040260200160405190810160405280929190818152602001828054611785906126b1565b80156117d25780601f106117a7576101008083540402835291602001916117d2565b820191906000526020600020905b8154815290600101906020018083116117b557829003601f168201915b505050505081526020016003820160009054906101000a900467ffffffffffffffff1667ffffffffffffffff1667ffffffffffffffff1681526020016004820154815250509050919050565b611826611a75565b6001600281111561183a57611839611f78565b5b60018260405161184a919061266b565b908152602001604051809103902060000160009054906101000a900460ff16600281111561187b5761187a611f78565b5b146118bb576040517f08c379a00000000000000000000000000000000000000000000000000000000081526004016118b290612f1b565b60405180910390fd5b60056000016001826040516118d0919061266b565b908152602001604051809103902060040154815481106118f3576118f2612600565b5b9060005260206000200160006119099190611c0a565b6005600101600081548092919061191f9061272a565b91905055506002600182604051611936919061266b565b908152602001604051809103902060000160006101000a81548160ff0219169083600281111561196957611968611f78565b5b0217905550600760000180549050600182604051611987919061266b565b9081526020016040518091039020600401819055506007600001819080600181540180825580915050600190039060005260206000200160009091909190915090816119d39190612a69565b50600760010160008154809291906119ea906126e2565b919050555050565b6119fa611a75565b600073ffffffffffffffffffffffffffffffffffffffff168173ffffffffffffffffffffffffffffffffffffffff1603611a69576040517f08c379a0000000000000000000000000000000000000000000000000000000008152600401611a6090612fad565b60405180910390fd5b611a7281611af3565b50565b611a7d611bb7565b73ffffffffffffffffffffffffffffffffffffffff16611a9b610eb6565b73ffffffffffffffffffffffffffffffffffffffff1614611af1576040517f08c379a0000000000000000000000000000000000000000000000000000000008152600401611ae890613019565b60405180910390fd5b565b60008060009054906101000a900473ffffffffffffffffffffffffffffffffffffffff169050816000806101000a81548173ffffffffffffffffffffffffffffffffffffffff021916908373ffffffffffffffffffffffffffffffffffffffff1602179055508173ffffffffffffffffffffffffffffffffffffffff168173ffffffffffffffffffffffffffffffffffffffff167f8be0079c531659141344cd1fd0a4f28419497f9722a3daafe3b4186f6b6457e060405160405180910390a35050565b600033905090565b6040518060a0016040528060006002811115611bde57611bdd611f78565b5b81526020016060815260200160608152602001600067ffffffffffffffff168152602001600081525090565b508054611c16906126b1565b6000825580601f10611c285750611c47565b601f016020900490600052602060002090810190611c469190611c4a565b5b50565b5b80821115611c63576000816000905550600101611c4b565b5090565b6000604051905090565b600080fd5b600080fd5b600080fd5b6000601f19601f8301169050919050565b7f4e487b7100000000000000000000000000000000000000000000000000000000600052604160045260246000fd5b611cc982611c80565b810181811067ffffffffffffffff82111715611ce857611ce7611c91565b5b80604052505050565b6000611cfb611c67565b9050611d078282611cc0565b919050565b600067ffffffffffffffff821115611d2757611d26611c91565b5b602082029050602081019050919050565b600080fd5b600080fd5b600067ffffffffffffffff821115611d5d57611d5c611c91565b5b611d6682611c80565b9050602081019050919050565b82818337600083830152505050565b6000611d95611d9084611d42565b611cf1565b905082815260208101848484011115611db157611db0611d3d565b5b611dbc848285611d73565b509392505050565b600082601f830112611dd957611dd8611c7b565b5b8135611de9848260208601611d82565b91505092915050565b6000611e05611e0084611d0c565b611cf1565b90508083825260208201905060208402830185811115611e2857611e27611d38565b5b835b81811015611e6f57803567ffffffffffffffff811115611e4d57611e4c611c7b565b5b808601611e5a8982611dc4565b85526020850194505050602081019050611e2a565b5050509392505050565b600082601f830112611e8e57611e8d611c7b565b5b8135611e9e848260208601611df2565b91505092915050565b6000819050919050565b611eba81611ea7565b8114611ec557600080fd5b50565b600081359050611ed781611eb1565b92915050565b600080600060608486031215611ef657611ef5611c71565b5b600084013567ffffffffffffffff811115611f1457611f13611c76565b5b611f2086828701611e79565b9350506020611f3186828701611ec8565b9250506040611f4286828701611ec8565b9150509250925092565b600081519050919050565b600082825260208201905092915050565b6000819050602082019050919050565b7f4e487b7100000000000000000000000000000000000000000000000000000000600052602160045260246000fd5b60038110611fb857611fb7611f78565b5b50565b6000819050611fc982611fa7565b919050565b6000611fd982611fbb565b9050919050565b611fe981611fce565b82525050565b600081519050919050565b600082825260208201905092915050565b60005b8381101561202957808201518184015260208101905061200e565b60008484015250505050565b600061204082611fef565b61204a8185611ffa565b935061205a81856020860161200b565b61206381611c80565b840191505092915050565b600067ffffffffffffffff82169050919050565b61208b8161206e565b82525050565b61209a81611ea7565b82525050565b600060a0830160008301516120b86000860182611fe0565b50602083015184820360208601526120d08282612035565b915050604083015184820360408601526120ea8282612035565b91505060608301516120ff6060860182612082565b5060808301516121126080860182612091565b508091505092915050565b600061212983836120a0565b905092915050565b6000602082019050919050565b600061214982611f4c565b6121538185611f57565b93508360208202850161216585611f68565b8060005b858110156121a15784840389528151612182858261211d565b945061218d83612131565b925060208a01995050600181019050612169565b50829750879550505050505092915050565b600060208201905081810360008301526121cd818461213e565b905092915050565b600080604083850312156121ec576121eb611c71565b5b600083013567ffffffffffffffff81111561220a57612209611c76565b5b61221685828601611dc4565b925050602083013567ffffffffffffffff81111561223757612236611c76565b5b61224385828601611dc4565b9150509250929050565b6122568161206e565b811461226157600080fd5b50565b6000813590506122738161224d565b92915050565b60008060006060848603121561229257612291611c71565b5b600084013567ffffffffffffffff8111156122b0576122af611c76565b5b6122bc86828701611dc4565b935050602084013567ffffffffffffffff8111156122dd576122dc611c76565b5b6122e986828701611dc4565b92505060406122fa86828701612264565b9150509250925092565b6000806040838503121561231b5761231a611c71565b5b600061232985828601611ec8565b925050602061233a85828601611ec8565b9150509250929050565b61234d81611ea7565b82525050565b6000604082019050818103600083015261236d818561213e565b905061237c6020830184612344565b9392505050565b600073ffffffffffffffffffffffffffffffffffffffff82169050919050565b60006123ae82612383565b9050919050565b6123be816123a3565b82525050565b60006020820190506123d960008301846123b5565b92915050565b6000602082840312156123f5576123f4611c71565b5b600082013567ffffffffffffffff81111561241357612412611c76565b5b61241f84828501611dc4565b91505092915050565b600060a0830160008301516124406000860182611fe0565b50602083015184820360208601526124588282612035565b915050604083015184820360408601526124728282612035565b91505060608301516124876060860182612082565b50608083015161249a6080860182612091565b508091505092915050565b600060208201905081810360008301526124bf8184612428565b905092915050565b6124d0816123a3565b81146124db57600080fd5b50565b6000813590506124ed816124c7565b92915050565b60006020828403121561250957612508611c71565b5b6000612517848285016124de565b91505092915050565b600082825260208201905092915050565b7f5f73746172742073686f756c64206265203e3d203020616e64203c205f656e64600082015250565b6000612567602083612520565b915061257282612531565b602082019050919050565b600060208201905081810360008301526125968161255a565b9050919050565b7f4e487b7100000000000000000000000000000000000000000000000000000000600052601160045260246000fd5b60006125d782611ea7565b91506125e283611ea7565b92508282039050818111156125fa576125f961259d565b5b92915050565b7f4e487b7100000000000000000000000000000000000000000000000000000000600052603260045260246000fd5b600081905092915050565b600061264582611fef565b61264f818561262f565b935061265f81856020860161200b565b80840191505092915050565b6000612677828461263a565b915081905092915050565b7f4e487b7100000000000000000000000000000000000000000000000000000000600052602260045260246000fd5b600060028204905060018216806126c957607f821691505b6020821081036126dc576126db612682565b5b50919050565b60006126ed82611ea7565b91507fffffffffffffffffffffffffffffffffffffffffffffffffffffffffffffffff820361271f5761271e61259d565b5b600182019050919050565b600061273582611ea7565b9150600082036127485761274761259d565b5b600182039050919050565b7f74686520706f73742073686f756c64206e6f7420626520617263686976656400600082015250565b6000612789601f83612520565b915061279482612753565b602082019050919050565b600060208201905081810360008301526127b88161277c565b9050919050565b6000815490506127ce816126b1565b9050919050565b60008190508160005260206000209050919050565b60006020601f8301049050919050565b600082821b905092915050565b6000600883026128377fffffffffffffffffffffffffffffffffffffffffffffffffffffffffffffffff826127fa565b61284186836127fa565b95508019841693508086168417925050509392505050565b6000819050919050565b600061287e61287961287484611ea7565b612859565b611ea7565b9050919050565b6000819050919050565b61289883612863565b6128ac6128a482612885565b848454612807565b825550505050565b600090565b6128c16128b4565b6128cc81848461288f565b505050565b5b818110156128f0576128e56000826128b9565b6001810190506128d2565b5050565b601f82111561293557612906816127d5565b61290f846127ea565b8101602085101561291e578190505b61293261292a856127ea565b8301826128d1565b50505b505050565b600082821c905092915050565b60006129586000198460080261293a565b1980831691505092915050565b60006129718383612947565b9150826002028217905092915050565b81810361298f575050612a67565b612998826127bf565b67ffffffffffffffff8111156129b1576129b0611c91565b5b6129bb82546126b1565b6129c68282856128f4565b6000601f8311600181146129f557600084156129e3578287015490505b6129ed8582612965565b865550612a60565b601f198416612a03876127d5565b9650612a0e866127d5565b60005b82811015612a3657848901548255600182019150600185019450602081019050612a11565b86831015612a535784890154612a4f601f891682612947565b8355505b6001600288020188555050505b5050505050505b565b612a7282611fef565b67ffffffffffffffff811115612a8b57612a8a611c91565b5b612a9582546126b1565b612aa08282856128f4565b600060209050601f831160018114612ad35760008415612ac1578287015190505b612acb8582612965565b865550612b33565b601f198416612ae1866127d5565b60005b82811015612b0957848901518255600182019150602085019450602081019050612ae4565b86831015612b265784890151612b22601f891682612947565b8355505b6001600288020188555050505b505050505050565b60008154612b48816126b1565b612b52818661262f565b94506001821660008114612b6d5760018114612b8257612bb5565b60ff1983168652811515820286019350612bb5565b612b8b856127d5565b60005b83811015612bad57815481890152600182019150602081019050612b8e565b838801955050505b50505092915050565b6000612bca8284612b3b565b915081905092915050565b7f637265617465642074696d652073686f756c64206265203e2030000000000000600082015250565b6000612c0b601a83612520565b9150612c1682612bd5565b602082019050919050565b60006020820190508181036000830152612c3a81612bfe565b9050919050565b7f736c75672063616e6e6f7420626520656d707479000000000000000000000000600082015250565b6000612c77601483612520565b9150612c8282612c41565b602082019050919050565b60006020820190508181036000830152612ca681612c6a565b9050919050565b7f74686520706f73742077697468207061737365642043494420697320616c726560008201527f6164792070726573656e74000000000000000000000000000000000000000000602082015250565b6000612d09602b83612520565b9150612d1482612cad565b604082019050919050565b60006020820190508181036000830152612d3881612cfc565b9050919050565b7f736c75672073686f756c6420626520756e697175650000000000000000000000600082015250565b6000612d75601583612520565b9150612d8082612d3f565b602082019050919050565b60006020820190508181036000830152612da481612d68565b9050919050565b7f646966666572656e74206265747765656e205f656e6420616e64205f7374617260008201527f742063616e6e6f74206265203e20353000000000000000000000000000000000602082015250565b6000612e07603083612520565b9150612e1282612dab565b604082019050919050565b60006020820190508181036000830152612e3681612dfa565b9050919050565b7f74686520706f737420697320616c7265616479207075626c6973686564000000600082015250565b6000612e73601d83612520565b9150612e7e82612e3d565b602082019050919050565b60006020820190508181036000830152612ea281612e66565b9050919050565b7f74686520706f73742073686f756c64206265207075626c697368656420746f2060008201527f6172636869766500000000000000000000000000000000000000000000000000602082015250565b6000612f05602783612520565b9150612f1082612ea9565b604082019050919050565b60006020820190508181036000830152612f3481612ef8565b9050919050565b7f4f776e61626c653a206e6577206f776e657220697320746865207a65726f206160008201527f6464726573730000000000000000000000000000000000000000000000000000602082015250565b6000612f97602683612520565b9150612fa282612f3b565b604082019050919050565b60006020820190508181036000830152612fc681612f8a565b9050919050565b7f4f776e61626c653a2063616c6c6572206973206e6f7420746865206f776e6572600082015250565b6000613003602083612520565b915061300e82612fcd565b602082019050919050565b6000602082019050818103600083015261303281612ff6565b905091905056fea2646970667358221220c0d3d203874860436327664594a98d0dc1024ebe83a4482ac46c906c176bdffc64736f6c63430008130033",
  "immutableReferences": {},
  "source": "// SPDX-License-Identifier: MIT\n\npragma solidity 0.8.19;\n\nimport \"@openzeppelin/contracts/access/Ownable.sol\";\n\ncontract MyProfile is Ownable {\n    enum PostStatus {\n        DRAFT,\n        PUBLISHED,\n        ARCHIVED\n    }\n\n    struct Post {\n        PostStatus status;\n        string cid;\n        string slug;\n        uint64 created;\n        // the index where post is placed in published posts list\n        uint index;\n    }\n\n    struct PostsList {\n        string[] list;\n        uint length;\n    }\n\n    // postCID => Post\n    mapping(string => Post) private postsMap;\n    // slug => postCID\n    mapping(string => string) private slugPostCidMap;\n\n    PostsList private draftPosts;\n    PostsList private publishedPosts;\n    PostsList private archivedPosts;\n\n    function createDraftPost(\n        string memory _postCid,\n        string memory _slug,\n        uint64 _created\n    ) public onlyOwner {\n        require(_created > 0, \"created time should be > 0\");\n        require(bytes(_slug).length > 0, \"slug cannot be empty\");\n        require(postsMap[_postCid].created == 0, \"the post with passed CID is already present\");\n        require(bytes(slugPostCidMap[_slug]).length == 0, \"slug should be unique\");\n\n        postsMap[_postCid] = Post({\n            status: PostStatus.DRAFT,\n            cid: _postCid,\n            slug: _slug,\n            created: _created,\n            index: draftPosts.list.length\n        });\n\n        slugPostCidMap[_slug] = _postCid;\n\n        draftPosts.list.push(_postCid);\n        draftPosts.length++;\n    }\n\n    function publishPost(string memory _postCid) public onlyOwner {\n        require(postsMap[_postCid].status != PostStatus.PUBLISHED, \"the post is already published\");\n\n        if (postsMap[_postCid].status == PostStatus.DRAFT) {\n            delete draftPosts.list[postsMap[_postCid].index];\n            draftPosts.length--;\n            //\n        } else if (postsMap[_postCid].status == PostStatus.ARCHIVED) {\n            delete archivedPosts.list[postsMap[_postCid].index];\n            archivedPosts.length--;\n        }\n\n        postsMap[_postCid].status = PostStatus.PUBLISHED;\n        postsMap[_postCid].index = publishedPosts.list.length;\n\n        publishedPosts.list.push(_postCid);\n        publishedPosts.length++;\n    }\n\n    function archivePost(string memory _postCid) public onlyOwner {\n        require(\n            postsMap[_postCid].status == PostStatus.PUBLISHED,\n            \"the post should be published to archive\"\n        );\n\n        delete publishedPosts.list[postsMap[_postCid].index];\n        publishedPosts.length--;\n\n        postsMap[_postCid].status = PostStatus.ARCHIVED;\n        postsMap[_postCid].index = archivedPosts.list.length;\n\n        archivedPosts.list.push(_postCid);\n        archivedPosts.length++;\n    }\n\n    /*\n    Replace post CID with new CID\n\n    Restrictions:\n    - A post should be in DRAFT or PUBLISHED status\n    - A post cannot be ARCHIVED\n    */\n    function updatePost(string memory _oldPostCid, string memory _newPostCid) public onlyOwner {\n        require(\n            postsMap[_oldPostCid].status != PostStatus.ARCHIVED,\n            \"the post should not be archived\"\n        );\n\n        // copy old post data to new (updated) post\n        postsMap[_newPostCid] = postsMap[_oldPostCid];\n        postsMap[_newPostCid].cid = _newPostCid;\n        // update slug -> post CID with new post CID to resolve new post (updated) by slug\n        slugPostCidMap[postsMap[_newPostCid].slug] = _newPostCid;\n\n        if (postsMap[_newPostCid].status == PostStatus.DRAFT) {\n            // replace old post CID with new CID\n            draftPosts.list[postsMap[_newPostCid].index] = _newPostCid;\n            //\n        } else if (postsMap[_newPostCid].status == PostStatus.PUBLISHED) {\n            publishedPosts.list[postsMap[_newPostCid].index] = _newPostCid;\n        }\n\n        // remove old post data\n        delete postsMap[_oldPostCid];\n    }\n\n    function getPost(string memory _postCid) public view returns (Post memory) {\n        return postsMap[_postCid];\n    }\n\n    function getPostBySlug(string memory _slug) public view returns (Post memory) {\n        return postsMap[slugPostCidMap[_slug]];\n    }\n\n    function getDraftPosts(uint _start, uint _end) public view returns (Post[] memory, uint) {\n        require(_end - _start <= 50, \"different between _end and _start cannot be > 50\");\n\n        return (_paginate(draftPosts.list, _start, _end), draftPosts.length);\n    }\n\n    function getPublishedPosts(uint _start, uint _end) public view returns (Post[] memory, uint) {\n        require(_end - _start <= 50, \"different between _end and _start cannot be > 50\");\n\n        return (_paginate(publishedPosts.list, _start, _end), publishedPosts.length);\n    }\n\n    function getArchivedPosts(uint _start, uint _end) public view returns (Post[] memory, uint) {\n        require(_end - _start <= 50, \"different between _end and _start cannot be > 50\");\n\n        return (_paginate(archivedPosts.list, _start, _end), archivedPosts.length);\n    }\n\n    function _paginate(\n        string[] memory self,\n        uint _start,\n        uint _end\n    ) public view returns (Post[] memory) {\n        require(_start >= 0 && _start < _end, \"_start should be >= 0 and < _end\");\n\n        uint _totalNumber = self.length;\n        uint _allowableEnd;\n\n        if (_end > _totalNumber) {\n            _allowableEnd = _totalNumber;\n        } else {\n            _allowableEnd = _end;\n        }\n\n        Post[] memory _list;\n\n        if (_allowableEnd <= _start) {\n            _list = new Post[](0);\n\n            return _list;\n        }\n\n        uint _currentNumber = _allowableEnd - _start;\n        uint _startOffset = _totalNumber - 1 - _start;\n\n        _list = new Post[](_currentNumber);\n\n        uint n = 0;\n        uint index = _startOffset;\n\n        while (n < _currentNumber) {\n            // check that it's not removed\n            if (bytes(self[index]).length != 0) {\n                _list[n] = postsMap[self[index]];\n                n++;\n            }\n            if (index == 0) {\n                break;\n            }\n            index--;\n        }\n\n        return _list;\n    }\n}\n",
  "sourcePath": "/Users/mike/WebstormProjects/nft/contracts/MyProfile.sol",
  "compiler": {
    "name": "solc",
    "version": "0.8.19+commit.7dd6d404.Emscripten.clang"
  },
  "schemaVersion": "3.4.12",
  "updatedAt": "2023-02-24T03:43:16.400Z",
  "devdoc": {
    "kind": "dev",
    "methods": {
      "owner()": {
        "details": "Returns the address of the current owner."
      },
      "renounceOwnership()": {
        "details": "Leaves the contract without owner. It will not be possible to call `onlyOwner` functions anymore. Can only be called by the current owner. NOTE: Renouncing ownership will leave the contract without an owner, thereby removing any functionality that is only available to the owner."
      },
      "transferOwnership(address)": {
        "details": "Transfers ownership of the contract to a new account (`newOwner`). Can only be called by the current owner."
      }
    },
    "version": 1
  },
  "userdoc": {
    "kind": "user",
    "methods": {},
    "version": 1
  }
}