{
  "contractName": "MyProfile",
  "abi": [
    {
      "anonymous": false,
      "inputs": [
        {
          "indexed": true,
          "internalType": "address",
          "name": "previousOwner",
          "type": "address"
        },
        {
          "indexed": true,
          "internalType": "address",
          "name": "newOwner",
          "type": "address"
        }
      ],
      "name": "OwnershipTransferred",
      "type": "event"
    },
    {
      "inputs": [],
      "name": "owner",
      "outputs": [
        {
          "internalType": "address",
          "name": "",
          "type": "address"
        }
      ],
      "stateMutability": "view",
      "type": "function",
      "constant": true
    },
    {
      "inputs": [],
      "name": "renounceOwnership",
      "outputs": [],
      "stateMutability": "nonpayable",
      "type": "function"
    },
    {
      "inputs": [
        {
          "internalType": "address",
          "name": "newOwner",
          "type": "address"
        }
      ],
      "name": "transferOwnership",
      "outputs": [],
      "stateMutability": "nonpayable",
      "type": "function"
    },
    {
      "inputs": [
        {
          "internalType": "string",
          "name": "_postCID",
          "type": "string"
        },
        {
          "internalType": "uint64",
          "name": "_created",
          "type": "uint64"
        }
      ],
      "name": "createDraftPost",
      "outputs": [],
      "stateMutability": "nonpayable",
      "type": "function"
    },
    {
      "inputs": [
        {
          "internalType": "string",
          "name": "_postCID",
          "type": "string"
        }
      ],
      "name": "publishPost",
      "outputs": [],
      "stateMutability": "nonpayable",
      "type": "function"
    },
    {
      "inputs": [
        {
          "internalType": "string",
          "name": "_postCID",
          "type": "string"
        }
      ],
      "name": "archivePost",
      "outputs": [],
      "stateMutability": "nonpayable",
      "type": "function"
    },
    {
      "inputs": [
        {
          "internalType": "string",
          "name": "_oldPostCID",
          "type": "string"
        },
        {
          "internalType": "string",
          "name": "_newPostCID",
          "type": "string"
        }
      ],
      "name": "updatePost",
      "outputs": [],
      "stateMutability": "nonpayable",
      "type": "function"
    },
    {
      "inputs": [
        {
          "internalType": "string",
          "name": "_postCID",
          "type": "string"
        }
      ],
      "name": "getPost",
      "outputs": [
        {
          "components": [
            {
              "internalType": "enum MyProfile.PostStatus",
              "name": "status",
              "type": "uint8"
            },
            {
              "internalType": "uint64",
              "name": "created",
              "type": "uint64"
            },
            {
              "internalType": "uint256",
              "name": "index",
              "type": "uint256"
            }
          ],
          "internalType": "struct MyProfile.Post",
          "name": "",
          "type": "tuple"
        }
      ],
      "stateMutability": "view",
      "type": "function",
      "constant": true
    },
    {
      "inputs": [
        {
          "internalType": "uint256",
          "name": "_start",
          "type": "uint256"
        },
        {
          "internalType": "uint256",
          "name": "_end",
          "type": "uint256"
        }
      ],
      "name": "getDraftPosts",
      "outputs": [
        {
          "internalType": "string[]",
          "name": "",
          "type": "string[]"
        },
        {
          "internalType": "uint256",
          "name": "",
          "type": "uint256"
        }
      ],
      "stateMutability": "view",
      "type": "function",
      "constant": true
    },
    {
      "inputs": [
        {
          "internalType": "uint256",
          "name": "_start",
          "type": "uint256"
        },
        {
          "internalType": "uint256",
          "name": "_end",
          "type": "uint256"
        }
      ],
      "name": "getPublishedPosts",
      "outputs": [
        {
          "internalType": "string[]",
          "name": "",
          "type": "string[]"
        },
        {
          "internalType": "uint256",
          "name": "",
          "type": "uint256"
        }
      ],
      "stateMutability": "view",
      "type": "function",
      "constant": true
    },
    {
      "inputs": [
        {
          "internalType": "uint256",
          "name": "_start",
          "type": "uint256"
        },
        {
          "internalType": "uint256",
          "name": "_end",
          "type": "uint256"
        }
      ],
      "name": "getArchivedPosts",
      "outputs": [
        {
          "internalType": "string[]",
          "name": "",
          "type": "string[]"
        },
        {
          "internalType": "uint256",
          "name": "",
          "type": "uint256"
        }
      ],
      "stateMutability": "view",
      "type": "function",
      "constant": true
    }
  ],
  "bytecode": "0x60806040523480156200001157600080fd5b5062000032620000266200003860201b60201c565b6200004060201b60201c565b62000104565b600033905090565b60008060009054906101000a900473ffffffffffffffffffffffffffffffffffffffff169050816000806101000a81548173ffffffffffffffffffffffffffffffffffffffff021916908373ffffffffffffffffffffffffffffffffffffffff1602179055508173ffffffffffffffffffffffffffffffffffffffff168173ffffffffffffffffffffffffffffffffffffffff167f8be0079c531659141344cd1fd0a4f28419497f9722a3daafe3b4186f6b6457e060405160405180910390a35050565b61261e80620001146000396000f3fe608060405234801561001057600080fd5b50600436106100a95760003560e01c8063b8c38e4611610071578063b8c38e4614610154578063c571946314610185578063df4a259b146101a1578063ea80667d146101d1578063f2fde38b146101ed578063f3f7785214610209576100a9565b8063084d5372146100ae578063715018a6146100ca57806387484dcf146100d45780638da5cb5b146101055780639201303414610123575b600080fd5b6100c860048036038101906100c391906115e1565b610225565b005b6100d2610541565b005b6100ee60048036038101906100e9919061168f565b610555565b6040516100fc92919061181f565b60405180910390f35b61010d610710565b60405161011a9190611890565b60405180910390f35b61013d6004803603810190610138919061168f565b610739565b60405161014b92919061181f565b60405180910390f35b61016e6004803603810190610169919061168f565b6108f4565b60405161017c92919061181f565b60405180910390f35b61019f600480360381019061019a91906118ab565b610aaf565b005b6101bb60048036038101906101b691906118ab565b610da5565b6040516101c891906119df565b60405180910390f35b6101eb60048036038101906101e691906118ab565b610e54565b005b61020760048036038101906102029190611a26565b611028565b005b610223600480360381019061021e9190611a7f565b6110ab565b005b61022d6112a3565b6002808111156102405761023f6118f4565b5b6001836040516102509190611b17565b908152602001604051809103902060000160009054906101000a900460ff166002811115610281576102806118f4565b5b036102c1576040517f08c379a00000000000000000000000000000000000000000000000000000000081526004016102b890611b8b565b60405180910390fd5b6001826040516102d19190611b17565b90815260200160405180910390206001826040516102ef9190611b17565b90815260200160405180910390206000820160009054906101000a900460ff168160000160006101000a81548160ff02191690836002811115610335576103346118f4565b5b02179055506000820160019054906101000a900467ffffffffffffffff168160000160016101000a81548167ffffffffffffffff021916908367ffffffffffffffff160217905550600182015481600101559050506000600281111561039e5761039d6118f4565b5b6001836040516103ae9190611b17565b908152602001604051809103902060000160009054906101000a900460ff1660028111156103df576103de6118f4565b5b03610439578060026000016001846040516103fa9190611b17565b9081526020016040518091039020600101548154811061041d5761041c611bab565b5b9060005260206000200190816104339190611de6565b506104e5565b6001600281111561044d5761044c6118f4565b5b60018360405161045d9190611b17565b908152602001604051809103902060000160009054906101000a900460ff16600281111561048e5761048d6118f4565b5b036104e4578060046000016001846040516104a99190611b17565b908152602001604051809103902060010154815481106104cc576104cb611bab565b5b9060005260206000200190816104e29190611de6565b505b5b6001826040516104f59190611b17565b9081526020016040518091039020600080820160006101000a81549060ff02191690556000820160016101000a81549067ffffffffffffffff0219169055600182016000905550505050565b6105496112a3565b6105536000611321565b565b60606000603284846105679190611ee7565b11156105a8576040517f08c379a000000000000000000000000000000000000000000000000000000000815260040161059f90611f8d565b60405180910390fd5b6006600001805480602002602001604051908101604052809291908181526020016000905b828210156106795783829060005260206000200180546105ec90611c09565b80601f016020809104026020016040519081016040528092919081815260200182805461061890611c09565b80156106655780601f1061063a57610100808354040283529160200191610665565b820191906000526020600020905b81548152906001019060200180831161064857829003601f168201915b5050505050815260200190600101906105cd565b5050505073__StringArray___________________________63fab2b3a3909186866040518463ffffffff1660e01b81526004016106b9939291906120a0565b600060405180830381865af41580156106d6573d6000803e3d6000fd5b505050506040513d6000823e3d601f19601f820116820180604052508101906106ff9190612234565b600660010154915091509250929050565b60008060009054906101000a900473ffffffffffffffffffffffffffffffffffffffff16905090565b606060006032848461074b9190611ee7565b111561078c576040517f08c379a000000000000000000000000000000000000000000000000000000000815260040161078390611f8d565b60405180910390fd5b6002600001805480602002602001604051908101604052809291908181526020016000905b8282101561085d5783829060005260206000200180546107d090611c09565b80601f01602080910402602001604051908101604052809291908181526020018280546107fc90611c09565b80156108495780601f1061081e57610100808354040283529160200191610849565b820191906000526020600020905b81548152906001019060200180831161082c57829003601f168201915b5050505050815260200190600101906107b1565b5050505073__StringArray___________________________63fab2b3a3909186866040518463ffffffff1660e01b815260040161089d939291906120a0565b600060405180830381865af41580156108ba573d6000803e3d6000fd5b505050506040513d6000823e3d601f19601f820116820180604052508101906108e39190612234565b600260010154915091509250929050565b60606000603284846109069190611ee7565b1115610947576040517f08c379a000000000000000000000000000000000000000000000000000000000815260040161093e90611f8d565b60405180910390fd5b6004600001805480602002602001604051908101604052809291908181526020016000905b82821015610a1857838290600052602060002001805461098b90611c09565b80601f01602080910402602001604051908101604052809291908181526020018280546109b790611c09565b8015610a045780601f106109d957610100808354040283529160200191610a04565b820191906000526020600020905b8154815290600101906020018083116109e757829003601f168201915b50505050508152602001906001019061096c565b5050505073__StringArray___________________________63fab2b3a3909186866040518463ffffffff1660e01b8152600401610a58939291906120a0565b600060405180830381865af4158015610a75573d6000803e3d6000fd5b505050506040513d6000823e3d601f19601f82011682018060405250810190610a9e9190612234565b600460010154915091509250929050565b610ab76112a3565b60016002811115610acb57610aca6118f4565b5b600182604051610adb9190611b17565b908152602001604051809103902060000160009054906101000a900460ff166002811115610b0c57610b0b6118f4565b5b03610b4c576040517f08c379a0000000000000000000000000000000000000000000000000000000008152600401610b43906122c9565b60405180910390fd5b60006002811115610b6057610b5f6118f4565b5b600182604051610b709190611b17565b908152602001604051809103902060000160009054906101000a900460ff166002811115610ba157610ba06118f4565b5b03610c14576002600001600182604051610bbb9190611b17565b90815260200160405180910390206001015481548110610bde57610bdd611bab565b5b906000526020600020016000610bf491906113ed565b60026001016000815480929190610c0a906122e9565b9190505550610cd8565b600280811115610c2757610c266118f4565b5b600182604051610c379190611b17565b908152602001604051809103902060000160009054906101000a900460ff166002811115610c6857610c676118f4565b5b03610cd7576006600001600182604051610c829190611b17565b90815260200160405180910390206001015481548110610ca557610ca4611bab565b5b906000526020600020016000610cbb91906113ed565b60066001016000815480929190610cd1906122e9565b91905055505b5b60018082604051610ce99190611b17565b908152602001604051809103902060000160006101000a81548160ff02191690836002811115610d1c57610d1b6118f4565b5b0217905550600460000180549050600182604051610d3a9190611b17565b908152602001604051809103902060010181905550600460000181908060018154018082558091505060019003906000526020600020016000909190919091509081610d869190611de6565b5060046001016000815480929190610d9d90612312565b919050555050565b610dad61142d565b600182604051610dbd9190611b17565b90815260200160405180910390206040518060600160405290816000820160009054906101000a900460ff166002811115610dfb57610dfa6118f4565b5b6002811115610e0d57610e0c6118f4565b5b81526020016000820160019054906101000a900467ffffffffffffffff1667ffffffffffffffff1667ffffffffffffffff1681526020016001820154815250509050919050565b610e5c6112a3565b60016002811115610e7057610e6f6118f4565b5b600182604051610e809190611b17565b908152602001604051809103902060000160009054906101000a900460ff166002811115610eb157610eb06118f4565b5b14610ef1576040517f08c379a0000000000000000000000000000000000000000000000000000000008152600401610ee8906123cc565b60405180910390fd5b6004600001600182604051610f069190611b17565b90815260200160405180910390206001015481548110610f2957610f28611bab565b5b906000526020600020016000610f3f91906113ed565b60046001016000815480929190610f55906122e9565b91905055506002600182604051610f6c9190611b17565b908152602001604051809103902060000160006101000a81548160ff02191690836002811115610f9f57610f9e6118f4565b5b0217905550600660000180549050600182604051610fbd9190611b17565b9081526020016040518091039020600101819055506006600001819080600181540180825580915050600190039060005260206000200160009091909190915090816110099190611de6565b506006600101600081548092919061102090612312565b919050555050565b6110306112a3565b600073ffffffffffffffffffffffffffffffffffffffff168173ffffffffffffffffffffffffffffffffffffffff160361109f576040517f08c379a00000000000000000000000000000000000000000000000000000000081526004016110969061245e565b60405180910390fd5b6110a881611321565b50565b6110b36112a3565b60008167ffffffffffffffff1611611100576040517f08c379a00000000000000000000000000000000000000000000000000000000081526004016110f7906124ca565b60405180910390fd5b60006001836040516111129190611b17565b908152602001604051809103902060000160019054906101000a900467ffffffffffffffff1667ffffffffffffffff1614611182576040517f08c379a00000000000000000000000000000000000000000000000000000000081526004016111799061255c565b60405180910390fd5b6040518060600160405280600060028111156111a1576111a06118f4565b5b81526020018267ffffffffffffffff1681526020016002600001805490508152506001836040516111d29190611b17565b908152602001604051809103902060008201518160000160006101000a81548160ff0219169083600281111561120b5761120a6118f4565b5b021790555060208201518160000160016101000a81548167ffffffffffffffff021916908367ffffffffffffffff160217905550604082015181600101559050506002600001829080600181540180825580915050600190039060005260206000200160009091909190915090816112839190611de6565b506002600101600081548092919061129a90612312565b91905055505050565b6112ab6113e5565b73ffffffffffffffffffffffffffffffffffffffff166112c9610710565b73ffffffffffffffffffffffffffffffffffffffff161461131f576040517f08c379a0000000000000000000000000000000000000000000000000000000008152600401611316906125c8565b60405180910390fd5b565b60008060009054906101000a900473ffffffffffffffffffffffffffffffffffffffff169050816000806101000a81548173ffffffffffffffffffffffffffffffffffffffff021916908373ffffffffffffffffffffffffffffffffffffffff1602179055508173ffffffffffffffffffffffffffffffffffffffff168173ffffffffffffffffffffffffffffffffffffffff167f8be0079c531659141344cd1fd0a4f28419497f9722a3daafe3b4186f6b6457e060405160405180910390a35050565b600033905090565b5080546113f990611c09565b6000825580601f1061140b575061142a565b601f016020900490600052602060002090810190611429919061146a565b5b50565b60405180606001604052806000600281111561144c5761144b6118f4565b5b8152602001600067ffffffffffffffff168152602001600081525090565b5b8082111561148357600081600090555060010161146b565b5090565b6000604051905090565b600080fd5b600080fd5b600080fd5b600080fd5b6000601f19601f8301169050919050565b7f4e487b7100000000000000000000000000000000000000000000000000000000600052604160045260246000fd5b6114ee826114a5565b810181811067ffffffffffffffff8211171561150d5761150c6114b6565b5b80604052505050565b6000611520611487565b905061152c82826114e5565b919050565b600067ffffffffffffffff82111561154c5761154b6114b6565b5b611555826114a5565b9050602081019050919050565b82818337600083830152505050565b600061158461157f84611531565b611516565b9050828152602081018484840111156115a05761159f6114a0565b5b6115ab848285611562565b509392505050565b600082601f8301126115c8576115c761149b565b5b81356115d8848260208601611571565b91505092915050565b600080604083850312156115f8576115f7611491565b5b600083013567ffffffffffffffff81111561161657611615611496565b5b611622858286016115b3565b925050602083013567ffffffffffffffff81111561164357611642611496565b5b61164f858286016115b3565b9150509250929050565b6000819050919050565b61166c81611659565b811461167757600080fd5b50565b60008135905061168981611663565b92915050565b600080604083850312156116a6576116a5611491565b5b60006116b48582860161167a565b92505060206116c58582860161167a565b9150509250929050565b600081519050919050565b600082825260208201905092915050565b6000819050602082019050919050565b600081519050919050565b600082825260208201905092915050565b60005b8381101561173557808201518184015260208101905061171a565b60008484015250505050565b600061174c826116fb565b6117568185611706565b9350611766818560208601611717565b61176f816114a5565b840191505092915050565b60006117868383611741565b905092915050565b6000602082019050919050565b60006117a6826116cf565b6117b081856116da565b9350836020820285016117c2856116eb565b8060005b858110156117fe57848403895281516117df858261177a565b94506117ea8361178e565b925060208a019950506001810190506117c6565b50829750879550505050505092915050565b61181981611659565b82525050565b60006040820190508181036000830152611839818561179b565b90506118486020830184611810565b9392505050565b600073ffffffffffffffffffffffffffffffffffffffff82169050919050565b600061187a8261184f565b9050919050565b61188a8161186f565b82525050565b60006020820190506118a56000830184611881565b92915050565b6000602082840312156118c1576118c0611491565b5b600082013567ffffffffffffffff8111156118df576118de611496565b5b6118eb848285016115b3565b91505092915050565b7f4e487b7100000000000000000000000000000000000000000000000000000000600052602160045260246000fd5b60038110611934576119336118f4565b5b50565b600081905061194582611923565b919050565b600061195582611937565b9050919050565b6119658161194a565b82525050565b600067ffffffffffffffff82169050919050565b6119888161196b565b82525050565b61199781611659565b82525050565b6060820160008201516119b3600085018261195c565b5060208201516119c6602085018261197f565b5060408201516119d9604085018261198e565b50505050565b60006060820190506119f4600083018461199d565b92915050565b611a038161186f565b8114611a0e57600080fd5b50565b600081359050611a20816119fa565b92915050565b600060208284031215611a3c57611a3b611491565b5b6000611a4a84828501611a11565b91505092915050565b611a5c8161196b565b8114611a6757600080fd5b50565b600081359050611a7981611a53565b92915050565b60008060408385031215611a9657611a95611491565b5b600083013567ffffffffffffffff811115611ab457611ab3611496565b5b611ac0858286016115b3565b9250506020611ad185828601611a6a565b9150509250929050565b600081905092915050565b6000611af1826116fb565b611afb8185611adb565b9350611b0b818560208601611717565b80840191505092915050565b6000611b238284611ae6565b915081905092915050565b600082825260208201905092915050565b7f74686520706f73742073686f756c64206e6f7420626520617263686976656400600082015250565b6000611b75601f83611b2e565b9150611b8082611b3f565b602082019050919050565b60006020820190508181036000830152611ba481611b68565b9050919050565b7f4e487b7100000000000000000000000000000000000000000000000000000000600052603260045260246000fd5b7f4e487b7100000000000000000000000000000000000000000000000000000000600052602260045260246000fd5b60006002820490506001821680611c2157607f821691505b602082108103611c3457611c33611bda565b5b50919050565b60008190508160005260206000209050919050565b60006020601f8301049050919050565b600082821b905092915050565b600060088302611c9c7fffffffffffffffffffffffffffffffffffffffffffffffffffffffffffffffff82611c5f565b611ca68683611c5f565b95508019841693508086168417925050509392505050565b6000819050919050565b6000611ce3611cde611cd984611659565b611cbe565b611659565b9050919050565b6000819050919050565b611cfd83611cc8565b611d11611d0982611cea565b848454611c6c565b825550505050565b600090565b611d26611d19565b611d31818484611cf4565b505050565b5b81811015611d5557611d4a600082611d1e565b600181019050611d37565b5050565b601f821115611d9a57611d6b81611c3a565b611d7484611c4f565b81016020851015611d83578190505b611d97611d8f85611c4f565b830182611d36565b50505b505050565b600082821c905092915050565b6000611dbd60001984600802611d9f565b1980831691505092915050565b6000611dd68383611dac565b9150826002028217905092915050565b611def826116fb565b67ffffffffffffffff811115611e0857611e076114b6565b5b611e128254611c09565b611e1d828285611d59565b600060209050601f831160018114611e505760008415611e3e578287015190505b611e488582611dca565b865550611eb0565b601f198416611e5e86611c3a565b60005b82811015611e8657848901518255600182019150602085019450602081019050611e61565b86831015611ea35784890151611e9f601f891682611dac565b8355505b6001600288020188555050505b505050505050565b7f4e487b7100000000000000000000000000000000000000000000000000000000600052601160045260246000fd5b6000611ef282611659565b9150611efd83611659565b9250828203905081811115611f1557611f14611eb8565b5b92915050565b7f646966666572656e74206265747765656e205f656e6420616e64205f7374617260008201527f742063616e6e6f74206265203e20353000000000000000000000000000000000602082015250565b6000611f77603083611b2e565b9150611f8282611f1b565b604082019050919050565b60006020820190508181036000830152611fa681611f6a565b9050919050565b600082825260208201905092915050565b600082825260208201905092915050565b6000611fda826116fb565b611fe48185611fbe565b9350611ff4818560208601611717565b611ffd816114a5565b840191505092915050565b60006120148383611fcf565b905092915050565b6000612027826116cf565b6120318185611fad565b935083602082028501612043856116eb565b8060005b8581101561207f57848403895281516120608582612008565b945061206b8361178e565b925060208a01995050600181019050612047565b50829750879550505050505092915050565b61209a81611659565b82525050565b600060608201905081810360008301526120ba818661201c565b90506120c96020830185612091565b6120d66040830184612091565b949350505050565b600067ffffffffffffffff8211156120f9576120f86114b6565b5b602082029050602081019050919050565b600080fd5b600061212261211d84611531565b611516565b90508281526020810184848401111561213e5761213d6114a0565b5b612149848285611717565b509392505050565b600082601f8301126121665761216561149b565b5b815161217684826020860161210f565b91505092915050565b600061219261218d846120de565b611516565b905080838252602082019050602084028301858111156121b5576121b461210a565b5b835b818110156121fc57805167ffffffffffffffff8111156121da576121d961149b565b5b8086016121e78982612151565b855260208501945050506020810190506121b7565b5050509392505050565b600082601f83011261221b5761221a61149b565b5b815161222b84826020860161217f565b91505092915050565b60006020828403121561224a57612249611491565b5b600082015167ffffffffffffffff81111561226857612267611496565b5b61227484828501612206565b91505092915050565b7f74686520706f737420697320616c7265616479207075626c6973686564000000600082015250565b60006122b3601d83611b2e565b91506122be8261227d565b602082019050919050565b600060208201905081810360008301526122e2816122a6565b9050919050565b60006122f482611659565b91506000820361230757612306611eb8565b5b600182039050919050565b600061231d82611659565b91507fffffffffffffffffffffffffffffffffffffffffffffffffffffffffffffffff820361234f5761234e611eb8565b5b600182019050919050565b7f74686520706f73742073686f756c64206265207075626c697368656420746f2060008201527f6172636869766500000000000000000000000000000000000000000000000000602082015250565b60006123b6602783611b2e565b91506123c18261235a565b604082019050919050565b600060208201905081810360008301526123e5816123a9565b9050919050565b7f4f776e61626c653a206e6577206f776e657220697320746865207a65726f206160008201527f6464726573730000000000000000000000000000000000000000000000000000602082015250565b6000612448602683611b2e565b9150612453826123ec565b604082019050919050565b600060208201905081810360008301526124778161243b565b9050919050565b7f5f637265617465642074696d652073686f756c64206265203e20300000000000600082015250565b60006124b4601b83611b2e565b91506124bf8261247e565b602082019050919050565b600060208201905081810360008301526124e3816124a7565b9050919050565b7f74686520706f7374207769746820706173732043494420697320616c7265616460008201527f792070726573656e740000000000000000000000000000000000000000000000602082015250565b6000612546602983611b2e565b9150612551826124ea565b604082019050919050565b6000602082019050818103600083015261257581612539565b9050919050565b7f4f776e61626c653a2063616c6c6572206973206e6f7420746865206f776e6572600082015250565b60006125b2602083611b2e565b91506125bd8261257c565b602082019050919050565b600060208201905081810360008301526125e1816125a5565b905091905056fea26469706673582212205b0b7679f04bc61b9eb2572bce269ee7fba9f097d0faddf656b220ee8918f3bb64736f6c63430008120033",
  "immutableReferences": {},
  "source": "// SPDX-License-Identifier: MIT\n\npragma solidity 0.8.18;\n\nimport \"@openzeppelin/contracts/access/Ownable.sol\";\n\nlibrary StringArray {\n    function paginate(\n        string[] memory self,\n        uint _start,\n        uint _end\n    ) public pure returns (string[] memory) {\n        require(_start >= 0 && _start < _end, \"_start should be >= 0 and < _end\");\n\n        uint _totalNumber = self.length;\n        uint _allowableEnd;\n\n        if (_end > _totalNumber) {\n            _allowableEnd = _totalNumber;\n        } else {\n            _allowableEnd = _end;\n        }\n\n        string[] memory _list;\n\n        if (_allowableEnd <= _start) {\n            _list = new string[](0);\n\n            return _list;\n        }\n\n        uint _currentNumber = _allowableEnd - _start;\n        uint _startOffset = _totalNumber - 1 - _start;\n\n        _list = new string[](_currentNumber);\n\n        uint n = 0;\n        uint index = _startOffset;\n\n        while (n < _currentNumber) {\n            if (bytes(self[index]).length != 0) {\n                _list[n] = self[index];\n                n++;\n            }\n            if (index == 0) {\n                break;\n            }\n            index--;\n        }\n\n        return _list;\n    }\n}\n\ncontract MyProfile is Ownable {\n    using StringArray for string[];\n\n    enum PostStatus {\n        DRAFT,\n        PUBLISHED,\n        ARCHIVED\n    }\n\n    struct Posts {\n        string[] list;\n        uint length;\n    }\n\n    struct Post {\n        PostStatus status;\n        uint64 created;\n        // the index where post is placed in published posts list\n        uint index;\n    }\n\n    // postCID => Post\n    mapping(string => Post) private posts;\n\n    Posts private draftPosts;\n    Posts private publishedPosts;\n    Posts private archivedPosts;\n\n    function createDraftPost(string memory _postCID, uint64 _created) public onlyOwner {\n        require(_created > 0, \"_created time should be > 0\");\n        require(posts[_postCID].created == 0, \"the post with pass CID is already present\");\n\n        posts[_postCID] = Post({\n            status: PostStatus.DRAFT,\n            created: _created,\n            index: draftPosts.list.length\n        });\n\n        draftPosts.list.push(_postCID);\n        draftPosts.length++;\n    }\n\n    function publishPost(string memory _postCID) public onlyOwner {\n        require(posts[_postCID].status != PostStatus.PUBLISHED, \"the post is already published\");\n\n        if (posts[_postCID].status == PostStatus.DRAFT) {\n            delete draftPosts.list[posts[_postCID].index];\n            draftPosts.length--;\n            //\n        } else if (posts[_postCID].status == PostStatus.ARCHIVED) {\n            delete archivedPosts.list[posts[_postCID].index];\n            archivedPosts.length--;\n        }\n\n        posts[_postCID].status = PostStatus.PUBLISHED;\n        posts[_postCID].index = publishedPosts.list.length;\n\n        publishedPosts.list.push(_postCID);\n        publishedPosts.length++;\n    }\n\n    function archivePost(string memory _postCID) public onlyOwner {\n        require(\n            posts[_postCID].status == PostStatus.PUBLISHED,\n            \"the post should be published to archive\"\n        );\n\n        delete publishedPosts.list[posts[_postCID].index];\n        publishedPosts.length--;\n\n        posts[_postCID].status = PostStatus.ARCHIVED;\n        posts[_postCID].index = archivedPosts.list.length;\n\n        archivedPosts.list.push(_postCID);\n        archivedPosts.length++;\n    }\n\n    /*\n    Replace post CID with new CID\n    */\n    function updatePost(string memory _oldPostCID, string memory _newPostCID) public onlyOwner {\n        require(\n            posts[_oldPostCID].status != PostStatus.ARCHIVED,\n            \"the post should not be archived\"\n        );\n\n        // copy old post data to new (updated) post\n        posts[_newPostCID] = posts[_oldPostCID];\n\n        if (posts[_oldPostCID].status == PostStatus.DRAFT) {\n            // replace old post CID with new CID\n            draftPosts.list[posts[_oldPostCID].index] = _newPostCID;\n            //\n        } else if (posts[_oldPostCID].status == PostStatus.PUBLISHED) {\n            publishedPosts.list[posts[_oldPostCID].index] = _newPostCID;\n        }\n\n        // remove old post data\n        delete posts[_oldPostCID];\n    }\n\n    function getPost(string memory _postCID) public view returns (Post memory) {\n        return posts[_postCID];\n    }\n\n    function getDraftPosts(uint _start, uint _end) public view returns (string[] memory, uint) {\n        require(_end - _start <= 50, \"different between _end and _start cannot be > 50\");\n\n        return (draftPosts.list.paginate(_start, _end), draftPosts.length);\n    }\n\n    function getPublishedPosts(uint _start, uint _end) public view returns (string[] memory, uint) {\n        require(_end - _start <= 50, \"different between _end and _start cannot be > 50\");\n\n        return (publishedPosts.list.paginate(_start, _end), publishedPosts.length);\n    }\n\n    function getArchivedPosts(uint _start, uint _end) public view returns (string[] memory, uint) {\n        require(_end - _start <= 50, \"different between _end and _start cannot be > 50\");\n\n        return (archivedPosts.list.paginate(_start, _end), archivedPosts.length);\n    }\n}\n",
  "sourcePath": "/Users/mike/WebstormProjects/nft/contracts/MyProfile.sol",
  "compiler": {
    "name": "solc",
    "version": "0.8.18+commit.87f61d96.Emscripten.clang"
  },
  "schemaVersion": "3.4.11",
  "updatedAt": "2023-02-13T02:20:39.071Z",
  "networkType": "ethereum",
  "devdoc": {
    "kind": "dev",
    "methods": {
      "owner()": {
        "details": "Returns the address of the current owner."
      },
      "renounceOwnership()": {
        "details": "Leaves the contract without owner. It will not be possible to call `onlyOwner` functions anymore. Can only be called by the current owner. NOTE: Renouncing ownership will leave the contract without an owner, thereby removing any functionality that is only available to the owner."
      },
      "transferOwnership(address)": {
        "details": "Transfers ownership of the contract to a new account (`newOwner`). Can only be called by the current owner."
      }
    },
    "version": 1
  },
  "userdoc": {
    "kind": "user",
    "methods": {},
    "version": 1
  }
}