{
  "contractName": "MyProfile",
  "abi": [
    {
      "anonymous": false,
      "inputs": [
        {
          "indexed": true,
          "internalType": "address",
          "name": "previousOwner",
          "type": "address"
        },
        {
          "indexed": true,
          "internalType": "address",
          "name": "newOwner",
          "type": "address"
        }
      ],
      "name": "OwnershipTransferred",
      "type": "event"
    },
    {
      "inputs": [],
      "name": "owner",
      "outputs": [
        {
          "internalType": "address",
          "name": "",
          "type": "address"
        }
      ],
      "stateMutability": "view",
      "type": "function"
    },
    {
      "inputs": [],
      "name": "renounceOwnership",
      "outputs": [],
      "stateMutability": "nonpayable",
      "type": "function"
    },
    {
      "inputs": [
        {
          "internalType": "address",
          "name": "newOwner",
          "type": "address"
        }
      ],
      "name": "transferOwnership",
      "outputs": [],
      "stateMutability": "nonpayable",
      "type": "function"
    },
    {
      "inputs": [
        {
          "internalType": "string",
          "name": "_postCID",
          "type": "string"
        },
        {
          "internalType": "uint64",
          "name": "_created",
          "type": "uint64"
        }
      ],
      "name": "addPost",
      "outputs": [],
      "stateMutability": "nonpayable",
      "type": "function"
    },
    {
      "inputs": [
        {
          "internalType": "string",
          "name": "_postCID",
          "type": "string"
        }
      ],
      "name": "getPost",
      "outputs": [
        {
          "components": [
            {
              "internalType": "uint64",
              "name": "created",
              "type": "uint64"
            },
            {
              "internalType": "uint256",
              "name": "index",
              "type": "uint256"
            }
          ],
          "internalType": "struct MyProfile.Post",
          "name": "",
          "type": "tuple"
        }
      ],
      "stateMutability": "view",
      "type": "function"
    },
    {
      "inputs": [
        {
          "internalType": "string",
          "name": "_oldPostCID",
          "type": "string"
        },
        {
          "internalType": "string",
          "name": "_newPostCID",
          "type": "string"
        }
      ],
      "name": "editPost",
      "outputs": [],
      "stateMutability": "nonpayable",
      "type": "function"
    },
    {
      "inputs": [
        {
          "internalType": "uint256",
          "name": "_start",
          "type": "uint256"
        },
        {
          "internalType": "uint256",
          "name": "_end",
          "type": "uint256"
        }
      ],
      "name": "getPosts",
      "outputs": [
        {
          "internalType": "string[]",
          "name": "",
          "type": "string[]"
        },
        {
          "internalType": "uint256",
          "name": "",
          "type": "uint256"
        }
      ],
      "stateMutability": "view",
      "type": "function"
    }
  ],
  "bytecode": "0x608060405234801561001057600080fd5b5061002d61002261003260201b60201c565b61003a60201b60201c565b6100fe565b600033905090565b60008060009054906101000a900473ffffffffffffffffffffffffffffffffffffffff169050816000806101000a81548173ffffffffffffffffffffffffffffffffffffffff021916908373ffffffffffffffffffffffffffffffffffffffff1602179055508173ffffffffffffffffffffffffffffffffffffffff168173ffffffffffffffffffffffffffffffffffffffff167f8be0079c531659141344cd1fd0a4f28419497f9722a3daafe3b4186f6b6457e060405160405180910390a35050565b6116258061010d6000396000f3fe608060405234801561001057600080fd5b506004361061007d5760003560e01c80638da5cb5b1161005b5780638da5cb5b146100d9578063ae508d99146100f7578063df4a259b14610113578063f2fde38b146101435761007d565b80632307d459146100825780634ffd1be61461009e578063715018a6146100cf575b600080fd5b61009c60048036038101906100979190610a35565b61015f565b005b6100b860048036038101906100b39190610ae3565b610288565b6040516100c6929190610c73565b60405180910390f35b6100d76104ab565b005b6100e16104bf565b6040516100ee9190610ce4565b60405180910390f35b610111600480360381019061010c9190610d3f565b6104e8565b005b61012d60048036038101906101289190610d9b565b610676565b60405161013a9190610e31565b60405180910390f35b61015d60048036038101906101589190610e78565b6106ea565b005b61016761076d565b6001826040516101779190610ee1565b90815260200160405180910390206001826040516101959190610ee1565b90815260200160405180910390206000820160009054906101000a900467ffffffffffffffff168160000160006101000a81548167ffffffffffffffff021916908367ffffffffffffffff160217905550600182015481600101559050508060026001846040516102069190610ee1565b9081526020016040518091039020600101548154811061022957610228610ef8565b5b90600052602060002001908161023f9190611133565b506001826040516102509190610ee1565b9081526020016040518091039020600080820160006101000a81549067ffffffffffffffff0219169055600182016000905550505050565b6060600080841015801561029b57508284105b6102da576040517f08c379a00000000000000000000000000000000000000000000000000000000081526004016102d190611262565b60405180910390fd5b606484846102e891906112b1565b1115610329576040517f08c379a000000000000000000000000000000000000000000000000000000000815260040161032090611357565b60405180910390fd5b6000600280549050905060008185111561034557819050610349565b8490505b6000868261035791906112b1565b905060008167ffffffffffffffff8111156103755761037461090a565b5b6040519080825280602002602001820160405280156103a857816020015b60608152602001906001900390816103935790505b50905060005b82811015610499576002818a6103c49190611377565b815481106103d5576103d4610ef8565b5b9060005260206000200180546103ea90610f56565b80601f016020809104026020016040519081016040528092919081815260200182805461041690610f56565b80156104635780601f1061043857610100808354040283529160200191610463565b820191906000526020600020905b81548152906001019060200180831161044657829003601f168201915b505050505082828151811061047b5761047a610ef8565b5b60200260200101819052508080610491906113ab565b9150506103ae565b50808495509550505050509250929050565b6104b361076d565b6104bd60006107eb565b565b60008060009054906101000a900473ffffffffffffffffffffffffffffffffffffffff16905090565b6104f061076d565b60006001836040516105029190610ee1565b908152602001604051809103902060000160009054906101000a900467ffffffffffffffff1667ffffffffffffffff1614610572576040517f08c379a000000000000000000000000000000000000000000000000000000000815260040161056990611465565b60405180910390fd5b60008167ffffffffffffffff16116105bf576040517f08c379a00000000000000000000000000000000000000000000000000000000081526004016105b6906114d1565b60405180910390fd5b60405180604001604052808267ffffffffffffffff1681526020016002805490508152506001836040516105f39190610ee1565b908152602001604051809103902060008201518160000160006101000a81548167ffffffffffffffff021916908367ffffffffffffffff160217905550602082015181600101559050506002829080600181540180825580915050600190039060005260206000200160009091909190915090816106719190611133565b505050565b61067e6108b7565b60018260405161068e9190610ee1565b90815260200160405180910390206040518060400160405290816000820160009054906101000a900467ffffffffffffffff1667ffffffffffffffff1667ffffffffffffffff1681526020016001820154815250509050919050565b6106f261076d565b600073ffffffffffffffffffffffffffffffffffffffff168173ffffffffffffffffffffffffffffffffffffffff1603610761576040517f08c379a000000000000000000000000000000000000000000000000000000000815260040161075890611563565b60405180910390fd5b61076a816107eb565b50565b6107756108af565b73ffffffffffffffffffffffffffffffffffffffff166107936104bf565b73ffffffffffffffffffffffffffffffffffffffff16146107e9576040517f08c379a00000000000000000000000000000000000000000000000000000000081526004016107e0906115cf565b60405180910390fd5b565b60008060009054906101000a900473ffffffffffffffffffffffffffffffffffffffff169050816000806101000a81548173ffffffffffffffffffffffffffffffffffffffff021916908373ffffffffffffffffffffffffffffffffffffffff1602179055508173ffffffffffffffffffffffffffffffffffffffff168173ffffffffffffffffffffffffffffffffffffffff167f8be0079c531659141344cd1fd0a4f28419497f9722a3daafe3b4186f6b6457e060405160405180910390a35050565b600033905090565b6040518060400160405280600067ffffffffffffffff168152602001600081525090565b6000604051905090565b600080fd5b600080fd5b600080fd5b600080fd5b6000601f19601f8301169050919050565b7f4e487b7100000000000000000000000000000000000000000000000000000000600052604160045260246000fd5b610942826108f9565b810181811067ffffffffffffffff821117156109615761096061090a565b5b80604052505050565b60006109746108db565b90506109808282610939565b919050565b600067ffffffffffffffff8211156109a05761099f61090a565b5b6109a9826108f9565b9050602081019050919050565b82818337600083830152505050565b60006109d86109d384610985565b61096a565b9050828152602081018484840111156109f4576109f36108f4565b5b6109ff8482856109b6565b509392505050565b600082601f830112610a1c57610a1b6108ef565b5b8135610a2c8482602086016109c5565b91505092915050565b60008060408385031215610a4c57610a4b6108e5565b5b600083013567ffffffffffffffff811115610a6a57610a696108ea565b5b610a7685828601610a07565b925050602083013567ffffffffffffffff811115610a9757610a966108ea565b5b610aa385828601610a07565b9150509250929050565b6000819050919050565b610ac081610aad565b8114610acb57600080fd5b50565b600081359050610add81610ab7565b92915050565b60008060408385031215610afa57610af96108e5565b5b6000610b0885828601610ace565b9250506020610b1985828601610ace565b9150509250929050565b600081519050919050565b600082825260208201905092915050565b6000819050602082019050919050565b600081519050919050565b600082825260208201905092915050565b60005b83811015610b89578082015181840152602081019050610b6e565b60008484015250505050565b6000610ba082610b4f565b610baa8185610b5a565b9350610bba818560208601610b6b565b610bc3816108f9565b840191505092915050565b6000610bda8383610b95565b905092915050565b6000602082019050919050565b6000610bfa82610b23565b610c048185610b2e565b935083602082028501610c1685610b3f565b8060005b85811015610c525784840389528151610c338582610bce565b9450610c3e83610be2565b925060208a01995050600181019050610c1a565b50829750879550505050505092915050565b610c6d81610aad565b82525050565b60006040820190508181036000830152610c8d8185610bef565b9050610c9c6020830184610c64565b9392505050565b600073ffffffffffffffffffffffffffffffffffffffff82169050919050565b6000610cce82610ca3565b9050919050565b610cde81610cc3565b82525050565b6000602082019050610cf96000830184610cd5565b92915050565b600067ffffffffffffffff82169050919050565b610d1c81610cff565b8114610d2757600080fd5b50565b600081359050610d3981610d13565b92915050565b60008060408385031215610d5657610d556108e5565b5b600083013567ffffffffffffffff811115610d7457610d736108ea565b5b610d8085828601610a07565b9250506020610d9185828601610d2a565b9150509250929050565b600060208284031215610db157610db06108e5565b5b600082013567ffffffffffffffff811115610dcf57610dce6108ea565b5b610ddb84828501610a07565b91505092915050565b610ded81610cff565b82525050565b610dfc81610aad565b82525050565b604082016000820151610e186000850182610de4565b506020820151610e2b6020850182610df3565b50505050565b6000604082019050610e466000830184610e02565b92915050565b610e5581610cc3565b8114610e6057600080fd5b50565b600081359050610e7281610e4c565b92915050565b600060208284031215610e8e57610e8d6108e5565b5b6000610e9c84828501610e63565b91505092915050565b600081905092915050565b6000610ebb82610b4f565b610ec58185610ea5565b9350610ed5818560208601610b6b565b80840191505092915050565b6000610eed8284610eb0565b915081905092915050565b7f4e487b7100000000000000000000000000000000000000000000000000000000600052603260045260246000fd5b7f4e487b7100000000000000000000000000000000000000000000000000000000600052602260045260246000fd5b60006002820490506001821680610f6e57607f821691505b602082108103610f8157610f80610f27565b5b50919050565b60008190508160005260206000209050919050565b60006020601f8301049050919050565b600082821b905092915050565b600060088302610fe97fffffffffffffffffffffffffffffffffffffffffffffffffffffffffffffffff82610fac565b610ff38683610fac565b95508019841693508086168417925050509392505050565b6000819050919050565b600061103061102b61102684610aad565b61100b565b610aad565b9050919050565b6000819050919050565b61104a83611015565b61105e61105682611037565b848454610fb9565b825550505050565b600090565b611073611066565b61107e818484611041565b505050565b5b818110156110a25761109760008261106b565b600181019050611084565b5050565b601f8211156110e7576110b881610f87565b6110c184610f9c565b810160208510156110d0578190505b6110e46110dc85610f9c565b830182611083565b50505b505050565b600082821c905092915050565b600061110a600019846008026110ec565b1980831691505092915050565b600061112383836110f9565b9150826002028217905092915050565b61113c82610b4f565b67ffffffffffffffff8111156111555761115461090a565b5b61115f8254610f56565b61116a8282856110a6565b600060209050601f83116001811461119d576000841561118b578287015190505b6111958582611117565b8655506111fd565b601f1984166111ab86610f87565b60005b828110156111d3578489015182556001820191506020850194506020810190506111ae565b868310156111f057848901516111ec601f8916826110f9565b8355505b6001600288020188555050505b505050505050565b600082825260208201905092915050565b7f5f73746172742073686f756c64206265203e3d203020616e64203c205f656e64600082015250565b600061124c602083611205565b915061125782611216565b602082019050919050565b6000602082019050818103600083015261127b8161123f565b9050919050565b7f4e487b7100000000000000000000000000000000000000000000000000000000600052601160045260246000fd5b60006112bc82610aad565b91506112c783610aad565b92508282039050818111156112df576112de611282565b5b92915050565b7f646966666572656e74206265747765656e205f656e6420616e64205f7374617260008201527f742063616e6e6f74206265203e20313030000000000000000000000000000000602082015250565b6000611341603183611205565b915061134c826112e5565b604082019050919050565b6000602082019050818103600083015261137081611334565b9050919050565b600061138282610aad565b915061138d83610aad565b92508282019050808211156113a5576113a4611282565b5b92915050565b60006113b682610aad565b91507fffffffffffffffffffffffffffffffffffffffffffffffffffffffffffffffff82036113e8576113e7611282565b5b600182019050919050565b7f74686520706f7374207769746820706173732043494420697320616c7265616460008201527f792070726573656e740000000000000000000000000000000000000000000000602082015250565b600061144f602983611205565b915061145a826113f3565b604082019050919050565b6000602082019050818103600083015261147e81611442565b9050919050565b7f5f637265617465642074696d652073686f756c64206265203e20300000000000600082015250565b60006114bb601b83611205565b91506114c682611485565b602082019050919050565b600060208201905081810360008301526114ea816114ae565b9050919050565b7f4f776e61626c653a206e6577206f776e657220697320746865207a65726f206160008201527f6464726573730000000000000000000000000000000000000000000000000000602082015250565b600061154d602683611205565b9150611558826114f1565b604082019050919050565b6000602082019050818103600083015261157c81611540565b9050919050565b7f4f776e61626c653a2063616c6c6572206973206e6f7420746865206f776e6572600082015250565b60006115b9602083611205565b91506115c482611583565b602082019050919050565b600060208201905081810360008301526115e8816115ac565b905091905056fea2646970667358221220c245c7bd95e67c71c2339081499aec62edf6b9ea2899334aa671d15a2769ec7564736f6c63430008120033",
  "immutableReferences": {},
  "source": "// SPDX-License-Identifier: MIT\n\npragma solidity ^0.8.18;\n\nimport \"@openzeppelin/contracts/access/Ownable.sol\";\n\ncontract MyProfile is Ownable {\n    struct Post {\n        uint64 created;\n        // the index where post is placed in orderedPosts list\n        uint index;\n    }\n\n    // postCID => Post\n    mapping(string => Post) private posts;\n\n    string[] private orderedPosts;\n\n    function addPost(string memory _postCID, uint64 _created) public onlyOwner {\n        require(posts[_postCID].created == 0, \"the post with pass CID is already present\");\n        require(_created > 0, \"_created time should be > 0\");\n\n        posts[_postCID] = Post({created: _created, index: orderedPosts.length});\n        // save new post to array to get all posts after\n        orderedPosts.push(_postCID);\n    }\n\n    function getPost(string memory _postCID) public view returns (Post memory) {\n        return posts[_postCID];\n    }\n\n    /*\n    Replace post CID with new CID\n    */\n    function editPost(string memory _oldPostCID, string memory _newPostCID) public onlyOwner {\n        // copy old post data to new (edited) post\n        posts[_newPostCID] = posts[_oldPostCID];\n        // replace old post CID with new CID\n        orderedPosts[posts[_oldPostCID].index] = _newPostCID;\n        // remove old post data\n        delete posts[_oldPostCID];\n    }\n\n    /*\n    Return paginated posts result\n     */\n    function getPosts(uint _start, uint _end) public view returns (string[] memory, uint) {\n        require(_start >= 0 && _start < _end, \"_start should be >= 0 and < _end\");\n        require(_end - _start <= 100, \"different between _end and _start cannot be > 100\");\n\n        uint _totalNumberPosts = orderedPosts.length;\n        uint _allowableEnd;\n\n        if (_end > _totalNumberPosts) {\n            _allowableEnd = _totalNumberPosts;\n        } else {\n            _allowableEnd = _end;\n        }\n\n        uint _currentNumberPosts = _allowableEnd - _start;\n\n        string[] memory _list = new string[](_currentNumberPosts);\n\n        for (uint i = 0; i < _currentNumberPosts; i++) {\n            _list[i] = orderedPosts[_start + i];\n        }\n\n        return (_list, _totalNumberPosts);\n    }\n}\n",
  "sourcePath": "/Users/mike/WebstormProjects/nft/contracts/MyProfile.sol",
  "compiler": {
    "name": "solc",
    "version": "0.8.18+commit.87f61d96.Emscripten.clang"
  },
  "schemaVersion": "3.4.11",
  "updatedAt": "2023-02-04T01:05:31.821Z",
  "devdoc": {
    "kind": "dev",
    "methods": {
      "owner()": {
        "details": "Returns the address of the current owner."
      },
      "renounceOwnership()": {
        "details": "Leaves the contract without owner. It will not be possible to call `onlyOwner` functions anymore. Can only be called by the current owner. NOTE: Renouncing ownership will leave the contract without an owner, thereby removing any functionality that is only available to the owner."
      },
      "transferOwnership(address)": {
        "details": "Transfers ownership of the contract to a new account (`newOwner`). Can only be called by the current owner."
      }
    },
    "version": 1
  },
  "userdoc": {
    "kind": "user",
    "methods": {},
    "version": 1
  }
}