{
  "contractName": "MyProfile",
  "abi": [
    {
      "anonymous": false,
      "inputs": [
        {
          "indexed": true,
          "internalType": "address",
          "name": "previousOwner",
          "type": "address"
        },
        {
          "indexed": true,
          "internalType": "address",
          "name": "newOwner",
          "type": "address"
        }
      ],
      "name": "OwnershipTransferred",
      "type": "event"
    },
    {
      "inputs": [],
      "name": "owner",
      "outputs": [
        {
          "internalType": "address",
          "name": "",
          "type": "address"
        }
      ],
      "stateMutability": "view",
      "type": "function",
      "constant": true
    },
    {
      "inputs": [],
      "name": "renounceOwnership",
      "outputs": [],
      "stateMutability": "nonpayable",
      "type": "function"
    },
    {
      "inputs": [
        {
          "internalType": "address",
          "name": "newOwner",
          "type": "address"
        }
      ],
      "name": "transferOwnership",
      "outputs": [],
      "stateMutability": "nonpayable",
      "type": "function"
    },
    {
      "inputs": [
        {
          "internalType": "string",
          "name": "_postCID",
          "type": "string"
        },
        {
          "internalType": "uint64",
          "name": "_created",
          "type": "uint64"
        }
      ],
      "name": "addPost",
      "outputs": [],
      "stateMutability": "nonpayable",
      "type": "function"
    },
    {
      "inputs": [
        {
          "internalType": "string",
          "name": "_postCID",
          "type": "string"
        }
      ],
      "name": "getPostInfo",
      "outputs": [
        {
          "components": [
            {
              "internalType": "uint64",
              "name": "created",
              "type": "uint64"
            },
            {
              "internalType": "uint256",
              "name": "index",
              "type": "uint256"
            }
          ],
          "internalType": "struct MyProfile.Post",
          "name": "",
          "type": "tuple"
        }
      ],
      "stateMutability": "view",
      "type": "function",
      "constant": true
    },
    {
      "inputs": [
        {
          "internalType": "string",
          "name": "_oldPostCID",
          "type": "string"
        },
        {
          "internalType": "string",
          "name": "_newPostCID",
          "type": "string"
        }
      ],
      "name": "editPost",
      "outputs": [],
      "stateMutability": "nonpayable",
      "type": "function"
    },
    {
      "inputs": [
        {
          "internalType": "uint256",
          "name": "_start",
          "type": "uint256"
        },
        {
          "internalType": "uint256",
          "name": "_end",
          "type": "uint256"
        }
      ],
      "name": "getPosts",
      "outputs": [
        {
          "internalType": "string[]",
          "name": "",
          "type": "string[]"
        },
        {
          "internalType": "uint256",
          "name": "",
          "type": "uint256"
        }
      ],
      "stateMutability": "view",
      "type": "function",
      "constant": true
    }
  ],
  "bytecode": "0x608060405234801561001057600080fd5b5061002d61002261003260201b60201c565b61003a60201b60201c565b6100fe565b600033905090565b60008060009054906101000a900473ffffffffffffffffffffffffffffffffffffffff169050816000806101000a81548173ffffffffffffffffffffffffffffffffffffffff021916908373ffffffffffffffffffffffffffffffffffffffff1602179055508173ffffffffffffffffffffffffffffffffffffffff168173ffffffffffffffffffffffffffffffffffffffff167f8be0079c531659141344cd1fd0a4f28419497f9722a3daafe3b4186f6b6457e060405160405180910390a35050565b6116258061010d6000396000f3fe608060405234801561001057600080fd5b506004361061007d5760003560e01c8063715018a61161005b578063715018a6146100ff5780638da5cb5b14610109578063ae508d9914610127578063f2fde38b146101435761007d565b80632307d4591461008257806341ce76171461009e5780634ffd1be6146100ce575b600080fd5b61009c60048036038101906100979190610a35565b61015f565b005b6100b860048036038101906100b39190610aad565b610288565b6040516100c59190610b61565b60405180910390f35b6100e860048036038101906100e39190610ba8565b6102fc565b6040516100f6929190610d38565b60405180910390f35b61010761051f565b005b610111610533565b60405161011e9190610da9565b60405180910390f35b610141600480360381019061013c9190610df0565b61055c565b005b61015d60048036038101906101589190610e78565b6106ea565b005b61016761076d565b6001826040516101779190610ee1565b90815260200160405180910390206001826040516101959190610ee1565b90815260200160405180910390206000820160009054906101000a900467ffffffffffffffff168160000160006101000a81548167ffffffffffffffff021916908367ffffffffffffffff160217905550600182015481600101559050508060026001846040516102069190610ee1565b9081526020016040518091039020600101548154811061022957610228610ef8565b5b90600052602060002001908161023f9190611133565b506001826040516102509190610ee1565b9081526020016040518091039020600080820160006101000a81549067ffffffffffffffff0219169055600182016000905550505050565b6102906108b7565b6001826040516102a09190610ee1565b90815260200160405180910390206040518060400160405290816000820160009054906101000a900467ffffffffffffffff1667ffffffffffffffff1667ffffffffffffffff1681526020016001820154815250509050919050565b6060600080841015801561030f57508284105b61034e576040517f08c379a000000000000000000000000000000000000000000000000000000000815260040161034590611262565b60405180910390fd5b6064848461035c91906112b1565b111561039d576040517f08c379a000000000000000000000000000000000000000000000000000000000815260040161039490611357565b60405180910390fd5b600060028054905090506000818511156103b9578190506103bd565b8490505b600086826103cb91906112b1565b905060008167ffffffffffffffff8111156103e9576103e861090a565b5b60405190808252806020026020018201604052801561041c57816020015b60608152602001906001900390816104075790505b50905060005b8281101561050d576002818a6104389190611377565b8154811061044957610448610ef8565b5b90600052602060002001805461045e90610f56565b80601f016020809104026020016040519081016040528092919081815260200182805461048a90610f56565b80156104d75780601f106104ac576101008083540402835291602001916104d7565b820191906000526020600020905b8154815290600101906020018083116104ba57829003601f168201915b50505050508282815181106104ef576104ee610ef8565b5b60200260200101819052508080610505906113ab565b915050610422565b50808495509550505050509250929050565b61052761076d565b61053160006107eb565b565b60008060009054906101000a900473ffffffffffffffffffffffffffffffffffffffff16905090565b61056461076d565b60006001836040516105769190610ee1565b908152602001604051809103902060000160009054906101000a900467ffffffffffffffff1667ffffffffffffffff16146105e6576040517f08c379a00000000000000000000000000000000000000000000000000000000081526004016105dd90611465565b60405180910390fd5b60008167ffffffffffffffff1611610633576040517f08c379a000000000000000000000000000000000000000000000000000000000815260040161062a906114d1565b60405180910390fd5b60405180604001604052808267ffffffffffffffff1681526020016002805490508152506001836040516106679190610ee1565b908152602001604051809103902060008201518160000160006101000a81548167ffffffffffffffff021916908367ffffffffffffffff160217905550602082015181600101559050506002829080600181540180825580915050600190039060005260206000200160009091909190915090816106e59190611133565b505050565b6106f261076d565b600073ffffffffffffffffffffffffffffffffffffffff168173ffffffffffffffffffffffffffffffffffffffff1603610761576040517f08c379a000000000000000000000000000000000000000000000000000000000815260040161075890611563565b60405180910390fd5b61076a816107eb565b50565b6107756108af565b73ffffffffffffffffffffffffffffffffffffffff16610793610533565b73ffffffffffffffffffffffffffffffffffffffff16146107e9576040517f08c379a00000000000000000000000000000000000000000000000000000000081526004016107e0906115cf565b60405180910390fd5b565b60008060009054906101000a900473ffffffffffffffffffffffffffffffffffffffff169050816000806101000a81548173ffffffffffffffffffffffffffffffffffffffff021916908373ffffffffffffffffffffffffffffffffffffffff1602179055508173ffffffffffffffffffffffffffffffffffffffff168173ffffffffffffffffffffffffffffffffffffffff167f8be0079c531659141344cd1fd0a4f28419497f9722a3daafe3b4186f6b6457e060405160405180910390a35050565b600033905090565b6040518060400160405280600067ffffffffffffffff168152602001600081525090565b6000604051905090565b600080fd5b600080fd5b600080fd5b600080fd5b6000601f19601f8301169050919050565b7f4e487b7100000000000000000000000000000000000000000000000000000000600052604160045260246000fd5b610942826108f9565b810181811067ffffffffffffffff821117156109615761096061090a565b5b80604052505050565b60006109746108db565b90506109808282610939565b919050565b600067ffffffffffffffff8211156109a05761099f61090a565b5b6109a9826108f9565b9050602081019050919050565b82818337600083830152505050565b60006109d86109d384610985565b61096a565b9050828152602081018484840111156109f4576109f36108f4565b5b6109ff8482856109b6565b509392505050565b600082601f830112610a1c57610a1b6108ef565b5b8135610a2c8482602086016109c5565b91505092915050565b60008060408385031215610a4c57610a4b6108e5565b5b600083013567ffffffffffffffff811115610a6a57610a696108ea565b5b610a7685828601610a07565b925050602083013567ffffffffffffffff811115610a9757610a966108ea565b5b610aa385828601610a07565b9150509250929050565b600060208284031215610ac357610ac26108e5565b5b600082013567ffffffffffffffff811115610ae157610ae06108ea565b5b610aed84828501610a07565b91505092915050565b600067ffffffffffffffff82169050919050565b610b1381610af6565b82525050565b6000819050919050565b610b2c81610b19565b82525050565b604082016000820151610b486000850182610b0a565b506020820151610b5b6020850182610b23565b50505050565b6000604082019050610b766000830184610b32565b92915050565b610b8581610b19565b8114610b9057600080fd5b50565b600081359050610ba281610b7c565b92915050565b60008060408385031215610bbf57610bbe6108e5565b5b6000610bcd85828601610b93565b9250506020610bde85828601610b93565b9150509250929050565b600081519050919050565b600082825260208201905092915050565b6000819050602082019050919050565b600081519050919050565b600082825260208201905092915050565b60005b83811015610c4e578082015181840152602081019050610c33565b60008484015250505050565b6000610c6582610c14565b610c6f8185610c1f565b9350610c7f818560208601610c30565b610c88816108f9565b840191505092915050565b6000610c9f8383610c5a565b905092915050565b6000602082019050919050565b6000610cbf82610be8565b610cc98185610bf3565b935083602082028501610cdb85610c04565b8060005b85811015610d175784840389528151610cf88582610c93565b9450610d0383610ca7565b925060208a01995050600181019050610cdf565b50829750879550505050505092915050565b610d3281610b19565b82525050565b60006040820190508181036000830152610d528185610cb4565b9050610d616020830184610d29565b9392505050565b600073ffffffffffffffffffffffffffffffffffffffff82169050919050565b6000610d9382610d68565b9050919050565b610da381610d88565b82525050565b6000602082019050610dbe6000830184610d9a565b92915050565b610dcd81610af6565b8114610dd857600080fd5b50565b600081359050610dea81610dc4565b92915050565b60008060408385031215610e0757610e066108e5565b5b600083013567ffffffffffffffff811115610e2557610e246108ea565b5b610e3185828601610a07565b9250506020610e4285828601610ddb565b9150509250929050565b610e5581610d88565b8114610e6057600080fd5b50565b600081359050610e7281610e4c565b92915050565b600060208284031215610e8e57610e8d6108e5565b5b6000610e9c84828501610e63565b91505092915050565b600081905092915050565b6000610ebb82610c14565b610ec58185610ea5565b9350610ed5818560208601610c30565b80840191505092915050565b6000610eed8284610eb0565b915081905092915050565b7f4e487b7100000000000000000000000000000000000000000000000000000000600052603260045260246000fd5b7f4e487b7100000000000000000000000000000000000000000000000000000000600052602260045260246000fd5b60006002820490506001821680610f6e57607f821691505b602082108103610f8157610f80610f27565b5b50919050565b60008190508160005260206000209050919050565b60006020601f8301049050919050565b600082821b905092915050565b600060088302610fe97fffffffffffffffffffffffffffffffffffffffffffffffffffffffffffffffff82610fac565b610ff38683610fac565b95508019841693508086168417925050509392505050565b6000819050919050565b600061103061102b61102684610b19565b61100b565b610b19565b9050919050565b6000819050919050565b61104a83611015565b61105e61105682611037565b848454610fb9565b825550505050565b600090565b611073611066565b61107e818484611041565b505050565b5b818110156110a25761109760008261106b565b600181019050611084565b5050565b601f8211156110e7576110b881610f87565b6110c184610f9c565b810160208510156110d0578190505b6110e46110dc85610f9c565b830182611083565b50505b505050565b600082821c905092915050565b600061110a600019846008026110ec565b1980831691505092915050565b600061112383836110f9565b9150826002028217905092915050565b61113c82610c14565b67ffffffffffffffff8111156111555761115461090a565b5b61115f8254610f56565b61116a8282856110a6565b600060209050601f83116001811461119d576000841561118b578287015190505b6111958582611117565b8655506111fd565b601f1984166111ab86610f87565b60005b828110156111d3578489015182556001820191506020850194506020810190506111ae565b868310156111f057848901516111ec601f8916826110f9565b8355505b6001600288020188555050505b505050505050565b600082825260208201905092915050565b7f5f73746172742073686f756c64206265203e3d203020616e64203c205f656e64600082015250565b600061124c602083611205565b915061125782611216565b602082019050919050565b6000602082019050818103600083015261127b8161123f565b9050919050565b7f4e487b7100000000000000000000000000000000000000000000000000000000600052601160045260246000fd5b60006112bc82610b19565b91506112c783610b19565b92508282039050818111156112df576112de611282565b5b92915050565b7f646966666572656e74206265747765656e205f656e6420616e64205f7374617260008201527f742063616e6e6f74206265203e20313030000000000000000000000000000000602082015250565b6000611341603183611205565b915061134c826112e5565b604082019050919050565b6000602082019050818103600083015261137081611334565b9050919050565b600061138282610b19565b915061138d83610b19565b92508282019050808211156113a5576113a4611282565b5b92915050565b60006113b682610b19565b91507fffffffffffffffffffffffffffffffffffffffffffffffffffffffffffffffff82036113e8576113e7611282565b5b600182019050919050565b7f74686520706f7374207769746820706173732043494420697320616c7265616460008201527f792070726573656e740000000000000000000000000000000000000000000000602082015250565b600061144f602983611205565b915061145a826113f3565b604082019050919050565b6000602082019050818103600083015261147e81611442565b9050919050565b7f5f637265617465642074696d652073686f756c64206265203e20300000000000600082015250565b60006114bb601b83611205565b91506114c682611485565b602082019050919050565b600060208201905081810360008301526114ea816114ae565b9050919050565b7f4f776e61626c653a206e6577206f776e657220697320746865207a65726f206160008201527f6464726573730000000000000000000000000000000000000000000000000000602082015250565b600061154d602683611205565b9150611558826114f1565b604082019050919050565b6000602082019050818103600083015261157c81611540565b9050919050565b7f4f776e61626c653a2063616c6c6572206973206e6f7420746865206f776e6572600082015250565b60006115b9602083611205565b91506115c482611583565b602082019050919050565b600060208201905081810360008301526115e8816115ac565b905091905056fea2646970667358221220b96b9ac4ccc8e9486cd4d169394ec40b9c8f340ecf5499e3ccd2fd03635f4a6064736f6c63430008120033",
  "immutableReferences": {},
  "source": "// SPDX-License-Identifier: MIT\n\npragma solidity ^0.8.18;\n\nimport \"@openzeppelin/contracts/access/Ownable.sol\";\n\ncontract MyProfile is Ownable {\n    struct Post {\n        uint64 created;\n        // the index where post is placed in orderedPosts list\n        uint index;\n    }\n\n    // postCID => Post\n    mapping(string => Post) private posts;\n\n    string[] private orderedPosts;\n\n    function addPost(string memory _postCID, uint64 _created) public onlyOwner {\n        require(posts[_postCID].created == 0, \"the post with pass CID is already present\");\n        require(_created > 0, \"_created time should be > 0\");\n\n        posts[_postCID] = Post({created: _created, index: orderedPosts.length});\n        // save new post to array to get all posts after\n        orderedPosts.push(_postCID);\n    }\n\n    function getPostInfo(string memory _postCID) public view returns (Post memory) {\n        return posts[_postCID];\n    }\n\n    /*\n    Replace post CID with new CID\n    */\n    function editPost(string memory _oldPostCID, string memory _newPostCID) public onlyOwner {\n        // copy old post data to new (edited) post\n        posts[_newPostCID] = posts[_oldPostCID];\n        // replace old post CID with new CID\n        orderedPosts[posts[_oldPostCID].index] = _newPostCID;\n        // remove old post data\n        delete posts[_oldPostCID];\n    }\n\n    /*\n    Return paginated posts result\n     */\n    function getPosts(uint _start, uint _end) public view returns (string[] memory, uint) {\n        require(_start >= 0 && _start < _end, \"_start should be >= 0 and < _end\");\n        require(_end - _start <= 100, \"different between _end and _start cannot be > 100\");\n\n        uint _totalNumberPosts = orderedPosts.length;\n        uint _allowableEnd;\n\n        if (_end > _totalNumberPosts) {\n            _allowableEnd = _totalNumberPosts;\n        } else {\n            _allowableEnd = _end;\n        }\n\n        uint _currentNumberPosts = _allowableEnd - _start;\n\n        string[] memory _list = new string[](_currentNumberPosts);\n\n        for (uint i = 0; i < _currentNumberPosts; i++) {\n            _list[i] = orderedPosts[_start + i];\n        }\n\n        return (_list, _totalNumberPosts);\n    }\n}\n",
  "sourcePath": "/Users/mike/WebstormProjects/nft/contracts/MyProfile.sol",
  "compiler": {
    "name": "solc",
    "version": "0.8.18+commit.87f61d96.Emscripten.clang"
  },
  "schemaVersion": "3.4.11",
  "updatedAt": "2023-02-03T02:16:54.943Z",
  "networkType": "ethereum",
  "devdoc": {
    "kind": "dev",
    "methods": {
      "owner()": {
        "details": "Returns the address of the current owner."
      },
      "renounceOwnership()": {
        "details": "Leaves the contract without owner. It will not be possible to call `onlyOwner` functions anymore. Can only be called by the current owner. NOTE: Renouncing ownership will leave the contract without an owner, thereby removing any functionality that is only available to the owner."
      },
      "transferOwnership(address)": {
        "details": "Transfers ownership of the contract to a new account (`newOwner`). Can only be called by the current owner."
      }
    },
    "version": 1
  },
  "userdoc": {
    "kind": "user",
    "methods": {},
    "version": 1
  }
}