{
  "contractName": "MyProfile",
  "abi": [
    {
      "anonymous": false,
      "inputs": [
        {
          "indexed": true,
          "internalType": "address",
          "name": "previousOwner",
          "type": "address"
        },
        {
          "indexed": true,
          "internalType": "address",
          "name": "newOwner",
          "type": "address"
        }
      ],
      "name": "OwnershipTransferred",
      "type": "event"
    },
    {
      "inputs": [],
      "name": "owner",
      "outputs": [
        {
          "internalType": "address",
          "name": "",
          "type": "address"
        }
      ],
      "stateMutability": "view",
      "type": "function",
      "constant": true
    },
    {
      "inputs": [],
      "name": "renounceOwnership",
      "outputs": [],
      "stateMutability": "nonpayable",
      "type": "function"
    },
    {
      "inputs": [
        {
          "internalType": "address",
          "name": "newOwner",
          "type": "address"
        }
      ],
      "name": "transferOwnership",
      "outputs": [],
      "stateMutability": "nonpayable",
      "type": "function"
    },
    {
      "inputs": [
        {
          "internalType": "string",
          "name": "postCID",
          "type": "string"
        }
      ],
      "name": "addPost",
      "outputs": [],
      "stateMutability": "nonpayable",
      "type": "function"
    },
    {
      "inputs": [],
      "name": "getPosts",
      "outputs": [
        {
          "internalType": "string[]",
          "name": "",
          "type": "string[]"
        }
      ],
      "stateMutability": "view",
      "type": "function",
      "constant": true
    }
  ],
  "bytecode": "0x608060405234801561001057600080fd5b5061002d61002261003260201b60201c565b61003a60201b60201c565b6100fe565b600033905090565b60008060009054906101000a900473ffffffffffffffffffffffffffffffffffffffff169050816000806101000a81548173ffffffffffffffffffffffffffffffffffffffff021916908373ffffffffffffffffffffffffffffffffffffffff1602179055508173ffffffffffffffffffffffffffffffffffffffff168173ffffffffffffffffffffffffffffffffffffffff167f8be0079c531659141344cd1fd0a4f28419497f9722a3daafe3b4186f6b6457e060405160405180910390a35050565b610be58061010d6000396000f3fe608060405234801561001057600080fd5b50600436106100575760003560e01c806341f3004a1461005c578063715018a61461007a5780638da5cb5b14610084578063a6322819146100a2578063f2fde38b146100be575b600080fd5b6100646100da565b604051610071919061054f565b60405180910390f35b6100826101b3565b005b61008c6101c7565b60405161009991906105b2565b60405180910390f35b6100bc60048036038101906100b79190610716565b6101f0565b005b6100d860048036038101906100d3919061078b565b610230565b005b60606001805480602002602001604051908101604052809291908181526020016000905b828210156101aa57838290600052602060002001805461011d906107e7565b80601f0160208091040260200160405190810160405280929190818152602001828054610149906107e7565b80156101965780601f1061016b57610100808354040283529160200191610196565b820191906000526020600020905b81548152906001019060200180831161017957829003601f168201915b5050505050815260200190600101906100fe565b50505050905090565b6101bb6102b3565b6101c56000610331565b565b60008060009054906101000a900473ffffffffffffffffffffffffffffffffffffffff16905090565b6101f86102b3565b60018190806001815401808255809150506001900390600052602060002001600090919091909150908161022c91906109ce565b5050565b6102386102b3565b600073ffffffffffffffffffffffffffffffffffffffff168173ffffffffffffffffffffffffffffffffffffffff16036102a7576040517f08c379a000000000000000000000000000000000000000000000000000000000815260040161029e90610b23565b60405180910390fd5b6102b081610331565b50565b6102bb6103f5565b73ffffffffffffffffffffffffffffffffffffffff166102d96101c7565b73ffffffffffffffffffffffffffffffffffffffff161461032f576040517f08c379a000000000000000000000000000000000000000000000000000000000815260040161032690610b8f565b60405180910390fd5b565b60008060009054906101000a900473ffffffffffffffffffffffffffffffffffffffff169050816000806101000a81548173ffffffffffffffffffffffffffffffffffffffff021916908373ffffffffffffffffffffffffffffffffffffffff1602179055508173ffffffffffffffffffffffffffffffffffffffff168173ffffffffffffffffffffffffffffffffffffffff167f8be0079c531659141344cd1fd0a4f28419497f9722a3daafe3b4186f6b6457e060405160405180910390a35050565b600033905090565b600081519050919050565b600082825260208201905092915050565b6000819050602082019050919050565b600081519050919050565b600082825260208201905092915050565b60005b83811015610463578082015181840152602081019050610448565b60008484015250505050565b6000601f19601f8301169050919050565b600061048b82610429565b6104958185610434565b93506104a5818560208601610445565b6104ae8161046f565b840191505092915050565b60006104c58383610480565b905092915050565b6000602082019050919050565b60006104e5826103fd565b6104ef8185610408565b93508360208202850161050185610419565b8060005b8581101561053d578484038952815161051e85826104b9565b9450610529836104cd565b925060208a01995050600181019050610505565b50829750879550505050505092915050565b6000602082019050818103600083015261056981846104da565b905092915050565b600073ffffffffffffffffffffffffffffffffffffffff82169050919050565b600061059c82610571565b9050919050565b6105ac81610591565b82525050565b60006020820190506105c760008301846105a3565b92915050565b6000604051905090565b600080fd5b600080fd5b600080fd5b600080fd5b7f4e487b7100000000000000000000000000000000000000000000000000000000600052604160045260246000fd5b6106238261046f565b810181811067ffffffffffffffff82111715610642576106416105eb565b5b80604052505050565b60006106556105cd565b9050610661828261061a565b919050565b600067ffffffffffffffff821115610681576106806105eb565b5b61068a8261046f565b9050602081019050919050565b82818337600083830152505050565b60006106b96106b484610666565b61064b565b9050828152602081018484840111156106d5576106d46105e6565b5b6106e0848285610697565b509392505050565b600082601f8301126106fd576106fc6105e1565b5b813561070d8482602086016106a6565b91505092915050565b60006020828403121561072c5761072b6105d7565b5b600082013567ffffffffffffffff81111561074a576107496105dc565b5b610756848285016106e8565b91505092915050565b61076881610591565b811461077357600080fd5b50565b6000813590506107858161075f565b92915050565b6000602082840312156107a1576107a06105d7565b5b60006107af84828501610776565b91505092915050565b7f4e487b7100000000000000000000000000000000000000000000000000000000600052602260045260246000fd5b600060028204905060018216806107ff57607f821691505b602082108103610812576108116107b8565b5b50919050565b60008190508160005260206000209050919050565b60006020601f8301049050919050565b600082821b905092915050565b60006008830261087a7fffffffffffffffffffffffffffffffffffffffffffffffffffffffffffffffff8261083d565b610884868361083d565b95508019841693508086168417925050509392505050565b6000819050919050565b6000819050919050565b60006108cb6108c66108c18461089c565b6108a6565b61089c565b9050919050565b6000819050919050565b6108e5836108b0565b6108f96108f1826108d2565b84845461084a565b825550505050565b600090565b61090e610901565b6109198184846108dc565b505050565b5b8181101561093d57610932600082610906565b60018101905061091f565b5050565b601f8211156109825761095381610818565b61095c8461082d565b8101602085101561096b578190505b61097f6109778561082d565b83018261091e565b50505b505050565b600082821c905092915050565b60006109a560001984600802610987565b1980831691505092915050565b60006109be8383610994565b9150826002028217905092915050565b6109d782610429565b67ffffffffffffffff8111156109f0576109ef6105eb565b5b6109fa82546107e7565b610a05828285610941565b600060209050601f831160018114610a385760008415610a26578287015190505b610a3085826109b2565b865550610a98565b601f198416610a4686610818565b60005b82811015610a6e57848901518255600182019150602085019450602081019050610a49565b86831015610a8b5784890151610a87601f891682610994565b8355505b6001600288020188555050505b505050505050565b600082825260208201905092915050565b7f4f776e61626c653a206e6577206f776e657220697320746865207a65726f206160008201527f6464726573730000000000000000000000000000000000000000000000000000602082015250565b6000610b0d602683610aa0565b9150610b1882610ab1565b604082019050919050565b60006020820190508181036000830152610b3c81610b00565b9050919050565b7f4f776e61626c653a2063616c6c6572206973206e6f7420746865206f776e6572600082015250565b6000610b79602083610aa0565b9150610b8482610b43565b602082019050919050565b60006020820190508181036000830152610ba881610b6c565b905091905056fea26469706673582212208a25250b11a9a367adf8eaae4a580f9ccbb4fa48fc818d9890a05d3618b1704764736f6c63430008110033",
  "immutableReferences": {},
  "source": "// SPDX-License-Identifier: UNLICENSED\n\npragma solidity ^0.8.17;\n\nimport \"@openzeppelin/contracts/access/Ownable.sol\";\n\ncontract MyProfile is Ownable {\n    string[] private posts;\n\n    function addPost(string memory postCID) public onlyOwner {\n        posts.push(postCID);\n    }\n\n    function getPosts() public view returns (string[] memory) {\n        return posts;\n    }\n}\n",
  "sourcePath": "/Users/mike/WebstormProjects/nft/contracts/MyProfile.sol",
  "compiler": {
    "name": "solc",
    "version": "0.8.17+commit.8df45f5f.Emscripten.clang"
  },
  "schemaVersion": "3.4.11",
  "updatedAt": "2023-01-28T16:11:49.844Z",
  "networkType": "ethereum",
  "devdoc": {
    "kind": "dev",
    "methods": {
      "owner()": {
        "details": "Returns the address of the current owner."
      },
      "renounceOwnership()": {
        "details": "Leaves the contract without owner. It will not be possible to call `onlyOwner` functions anymore. Can only be called by the current owner. NOTE: Renouncing ownership will leave the contract without an owner, thereby removing any functionality that is only available to the owner."
      },
      "transferOwnership(address)": {
        "details": "Transfers ownership of the contract to a new account (`newOwner`). Can only be called by the current owner."
      }
    },
    "version": 1
  },
  "userdoc": {
    "kind": "user",
    "methods": {},
    "version": 1
  }
}